{
  "_format": "hh-sol-artifact-1",
  "contractName": "CampaignFactory",
  "sourceName": "contracts/Campaign.sol",
  "abi": [
    {
      "inputs": [
        {
          "internalType": "uint256",
          "name": "minimum",
          "type": "uint256"
        },
        {
          "internalType": "string",
          "name": "name",
          "type": "string"
        },
        {
          "internalType": "string",
          "name": "description",
          "type": "string"
        },
        {
          "internalType": "string",
          "name": "image",
          "type": "string"
        },
        {
          "internalType": "uint256",
          "name": "target",
          "type": "uint256"
        },
        {
          "internalType": "uint256",
          "name": "_datecreated",
          "type": "uint256"
        },
        {
          "internalType": "string",
          "name": "_Link",
          "type": "string"
        },
        {
          "internalType": "address",
          "name": "Sender",
          "type": "address"
        },
        {
          "internalType": "uint256",
          "name": "deadline",
          "type": "uint256"
        }
      ],
      "name": "createCampaign",
      "outputs": [],
      "stateMutability": "nonpayable",
      "type": "function"
    },
    {
      "inputs": [
        {
          "internalType": "uint256",
          "name": "",
          "type": "uint256"
        }
      ],
      "name": "deployedCampaigns",
      "outputs": [
        {
          "internalType": "address",
          "name": "",
          "type": "address"
        }
      ],
      "stateMutability": "view",
      "type": "function"
    },
    {
      "inputs": [],
      "name": "getDeployedCampaigns",
      "outputs": [
        {
          "internalType": "address[]",
          "name": "",
          "type": "address[]"
        }
      ],
      "stateMutability": "view",
      "type": "function"
    }
  ],
  "bytecode": "0x608060405234801561001057600080fd5b506130c0806100206000396000f3fe60806040523480156200001157600080fd5b5060043610620000465760003560e01c8063339d50a5146200004b57806343b51c1814620000815780634acb9d4f14620000a1575b600080fd5b620000696004803603810190620000639190620002ac565b620000c3565b60405162000078919062000323565b60405180910390f35b6200009f6004803603810190620000999190620004d3565b62000103565b005b620000ab620001bf565b604051620000ba9190620006fc565b60405180910390f35b60008181548110620000d457600080fd5b906000526020600020016000915054906101000a900473ffffffffffffffffffffffffffffffffffffffff1681565b600089838a8a8a8a8a8a896040516200011c906200024f565b6200013099989796959493929190620007ba565b604051809103906000f0801580156200014d573d6000803e3d6000fd5b5090506000819080600181540180825580915050600190039060005260206000200160009091909190916101000a81548173ffffffffffffffffffffffffffffffffffffffff021916908373ffffffffffffffffffffffffffffffffffffffff16021790555050505050505050505050565b606060008054806020026020016040519081016040528092919081815260200182805480156200024557602002820191906000526020600020905b8160009054906101000a900473ffffffffffffffffffffffffffffffffffffffff1673ffffffffffffffffffffffffffffffffffffffff1681526020019060010190808311620001fa575b5050505050905090565b612815806200087683390190565b6000604051905090565b600080fd5b600080fd5b6000819050919050565b620002868162000271565b81146200029257600080fd5b50565b600081359050620002a6816200027b565b92915050565b600060208284031215620002c557620002c462000267565b5b6000620002d58482850162000295565b91505092915050565b600073ffffffffffffffffffffffffffffffffffffffff82169050919050565b60006200030b82620002de565b9050919050565b6200031d81620002fe565b82525050565b60006020820190506200033a600083018462000312565b92915050565b600080fd5b600080fd5b6000601f19601f8301169050919050565b7f4e487b7100000000000000000000000000000000000000000000000000000000600052604160045260246000fd5b62000395826200034a565b810181811067ffffffffffffffff82111715620003b757620003b66200035b565b5b80604052505050565b6000620003cc6200025d565b9050620003da82826200038a565b919050565b600067ffffffffffffffff821115620003fd57620003fc6200035b565b5b62000408826200034a565b9050602081019050919050565b82818337600083830152505050565b60006200043b6200043584620003df565b620003c0565b9050828152602081018484840111156200045a576200045962000345565b5b6200046784828562000415565b509392505050565b600082601f83011262000487576200048662000340565b5b81356200049984826020860162000424565b91505092915050565b620004ad81620002fe565b8114620004b957600080fd5b50565b600081359050620004cd81620004a2565b92915050565b60008060008060008060008060006101208a8c031215620004f957620004f862000267565b5b6000620005098c828d0162000295565b99505060208a013567ffffffffffffffff8111156200052d576200052c6200026c565b5b6200053b8c828d016200046f565b98505060408a013567ffffffffffffffff8111156200055f576200055e6200026c565b5b6200056d8c828d016200046f565b97505060608a013567ffffffffffffffff8111156200059157620005906200026c565b5b6200059f8c828d016200046f565b9650506080620005b28c828d0162000295565b95505060a0620005c58c828d0162000295565b94505060c08a013567ffffffffffffffff811115620005e957620005e86200026c565b5b620005f78c828d016200046f565b93505060e06200060a8c828d01620004bc565b9250506101006200061e8c828d0162000295565b9150509295985092959850929598565b600081519050919050565b600082825260208201905092915050565b6000819050602082019050919050565b6200066581620002fe565b82525050565b60006200067983836200065a565b60208301905092915050565b6000602082019050919050565b60006200069f826200062e565b620006ab818562000639565b9350620006b8836200064a565b8060005b83811015620006ef578151620006d388826200066b565b9750620006e08362000685565b925050600181019050620006bc565b5085935050505092915050565b6000602082019050818103600083015262000718818462000692565b905092915050565b6200072b8162000271565b82525050565b600081519050919050565b600082825260208201905092915050565b60005b838110156200076d57808201518184015260208101905062000750565b60008484015250505050565b6000620007868262000731565b6200079281856200073c565b9350620007a48185602086016200074d565b620007af816200034a565b840191505092915050565b600061012082019050620007d2600083018c62000720565b620007e1602083018b62000312565b8181036040830152620007f5818a62000779565b905081810360608301526200080b818962000779565b9050818103608083015262000821818862000779565b90506200083260a083018762000720565b6200084160c083018662000720565b81810360e083015262000855818562000779565b90506200086761010083018462000720565b9a995050505050505050505056fe60806040523480156200001157600080fd5b506040516200281538038062002815833981810160405281019062000037919062000338565b876000806101000a81548173ffffffffffffffffffffffffffffffffffffffff021916908373ffffffffffffffffffffffffffffffffffffffff1602179055508860018190555086600290816200008f9190620006d4565b508560049081620000a19190620006d4565b508460059081620000b39190620006d4565b50836006819055508260098190555081600a9081620000d39190620006d4565b5080600c819055506000600b60006101000a81548160ff021916908315150217905550505050505050505050620007bb565b6000604051905090565b600080fd5b600080fd5b6000819050919050565b6200012e8162000119565b81146200013a57600080fd5b50565b6000815190506200014e8162000123565b92915050565b600073ffffffffffffffffffffffffffffffffffffffff82169050919050565b6000620001818262000154565b9050919050565b620001938162000174565b81146200019f57600080fd5b50565b600081519050620001b38162000188565b92915050565b600080fd5b600080fd5b6000601f19601f8301169050919050565b7f4e487b7100000000000000000000000000000000000000000000000000000000600052604160045260246000fd5b6200020e82620001c3565b810181811067ffffffffffffffff8211171562000230576200022f620001d4565b5b80604052505050565b60006200024562000105565b905062000253828262000203565b919050565b600067ffffffffffffffff821115620002765762000275620001d4565b5b6200028182620001c3565b9050602081019050919050565b60005b83811015620002ae57808201518184015260208101905062000291565b60008484015250505050565b6000620002d1620002cb8462000258565b62000239565b905082815260208101848484011115620002f057620002ef620001be565b5b620002fd8482856200028e565b509392505050565b600082601f8301126200031d576200031c620001b9565b5b81516200032f848260208601620002ba565b91505092915050565b60008060008060008060008060006101208a8c0312156200035e576200035d6200010f565b5b60006200036e8c828d016200013d565b9950506020620003818c828d01620001a2565b98505060408a015167ffffffffffffffff811115620003a557620003a462000114565b5b620003b38c828d0162000305565b97505060608a015167ffffffffffffffff811115620003d757620003d662000114565b5b620003e58c828d0162000305565b96505060808a015167ffffffffffffffff81111562000409576200040862000114565b5b620004178c828d0162000305565b95505060a06200042a8c828d016200013d565b94505060c06200043d8c828d016200013d565b93505060e08a015167ffffffffffffffff81111562000461576200046062000114565b5b6200046f8c828d0162000305565b925050610100620004838c828d016200013d565b9150509295985092959850929598565b600081519050919050565b7f4e487b7100000000000000000000000000000000000000000000000000000000600052602260045260246000fd5b60006002820490506001821680620004e657607f821691505b602082108103620004fc57620004fb6200049e565b5b50919050565b60008190508160005260206000209050919050565b60006020601f8301049050919050565b600082821b905092915050565b600060088302620005667fffffffffffffffffffffffffffffffffffffffffffffffffffffffffffffffff8262000527565b62000572868362000527565b95508019841693508086168417925050509392505050565b6000819050919050565b6000620005b5620005af620005a98462000119565b6200058a565b62000119565b9050919050565b6000819050919050565b620005d18362000594565b620005e9620005e082620005bc565b84845462000534565b825550505050565b600090565b62000600620005f1565b6200060d818484620005c6565b505050565b5b81811015620006355762000629600082620005f6565b60018101905062000613565b5050565b601f82111562000684576200064e8162000502565b620006598462000517565b8101602085101562000669578190505b62000681620006788562000517565b83018262000612565b50505b505050565b600082821c905092915050565b6000620006a96000198460080262000689565b1980831691505092915050565b6000620006c4838362000696565b9150826002028217905092915050565b620006df8262000493565b67ffffffffffffffff811115620006fb57620006fa620001d4565b5b620007078254620004cd565b6200071482828562000639565b600060209050601f8311600181146200074c576000841562000737578287015190505b620007438582620006b6565b865550620007b3565b601f1984166200075c8662000502565b60005b8281101562000786578489015182556001820191506020850194506020810190506200075f565b86831015620007a65784890151620007a2601f89168262000696565b8355505b6001600288020188555050505b505050505050565b61204a80620007cb6000396000f3fe6080604052600436106101b75760003560e01c806397654a8c116100ec578063b4a99a4e1161008a578063d7bb99ba11610064578063d7bb99ba1461062f578063d7d1bbdb14610639578063ec2902b814610662578063f4364a711461068d576101b7565b8063b4a99a4e1461059c578063c033a490146105c7578063c6f221aa14610604576101b7565b8063a7f33715116100c6578063a7f33715146104de578063aba8315014610509578063b2a87fc314610534578063b437a66a1461055f576101b7565b806397654a8c1461045d5780639fb42b1f14610488578063a128dfa3146104b3576101b7565b8063606f22431161015957806381d12c581161013357806381d12c581461039c57806382fde093146103de5780638a9cfd551461040957806394d7c88b14610432576101b7565b8063606f224314610309578063643724f2146103465780637e7cd1b314610371576101b7565b80631fbed579116101955780631fbed579146102405780634051ddac1461027d57806341f72d38146102b35780635f8d96de146102de576101b7565b806303441006146101bc5780630873a2e6146101d85780630a14439114610203575b600080fd5b6101d660048036038101906101d1919061152d565b6106a9565b005b3480156101e457600080fd5b506101ed6107cc565b6040516101fa91906115ea565b60405180910390f35b34801561020f57600080fd5b5061022a6004803603810190610225919061166a565b61085a565b60405161023791906116b2565b60405180910390f35b34801561024c57600080fd5b506102676004803603810190610262919061152d565b61087a565b60405161027491906116dc565b60405180910390f35b34801561028957600080fd5b506102926108b9565b6040516102aa9c9b9a99989796959493929190611706565b60405180910390f35b3480156102bf57600080fd5b506102c8610ade565b6040516102d591906117d5565b60405180910390f35b3480156102ea57600080fd5b506102f3610ae4565b60405161030091906117d5565b60405180910390f35b34801561031557600080fd5b50610330600480360381019061032b919061152d565b610aee565b60405161033d91906117d5565b60405180910390f35b34801561035257600080fd5b5061035b610b12565b60405161036891906116b2565b60405180910390f35b34801561037d57600080fd5b50610386610b25565b60405161039391906115ea565b60405180910390f35b3480156103a857600080fd5b506103c360048036038101906103be919061152d565b610bb3565b6040516103d5969594939291906117f0565b60405180910390f35b3480156103ea57600080fd5b506103f3610ca4565b60405161040091906117d5565b60405180910390f35b34801561041557600080fd5b50610430600480360381019061042b919061198d565b610caa565b005b34801561043e57600080fd5b50610447610d79565b6040516104549190611aba565b60405180910390f35b34801561046957600080fd5b50610472610dd1565b60405161047f91906115ea565b60405180910390f35b34801561049457600080fd5b5061049d610e5f565b6040516104aa91906117d5565b60405180910390f35b3480156104bf57600080fd5b506104c8610e65565b6040516104d591906115ea565b60405180910390f35b3480156104ea57600080fd5b506104f3610ef3565b60405161050091906117d5565b60405180910390f35b34801561051557600080fd5b5061051e610ef9565b60405161052b91906115ea565b60405180910390f35b34801561054057600080fd5b50610549610f87565b60405161055691906117d5565b60405180910390f35b34801561056b57600080fd5b5061058660048036038101906105819190611adc565b610f8d565b60405161059391906116b2565b60405180910390f35b3480156105a857600080fd5b506105b1610ff8565b6040516105be91906116dc565b60405180910390f35b3480156105d357600080fd5b506105ee60048036038101906105e9919061166a565b61101c565b6040516105fb91906116b2565b60405180910390f35b34801561061057600080fd5b5061061961103c565b60405161062691906117d5565b60405180910390f35b610637611042565b005b34801561064557600080fd5b50610660600480360381019061065b919061152d565b6111bd565b005b34801561066e57600080fd5b50610677611319565b6040516106849190611bda565b60405180910390f35b6106a760048036038101906106a2919061152d565b6113a7565b005b6002600e546106b89190611c5a565b6011600083815260200190815260200160002060040154116106d957600080fd5b6011600082815260200190815260200160002060030160149054906101000a900460ff161561070757600080fd5b6011600082815260200190815260200160002060030160009054906101000a900473ffffffffffffffffffffffffffffffffffffffff1673ffffffffffffffffffffffffffffffffffffffff166108fc60116000848152602001908152602001600020600201549081150290604051600060405180830381858888f19350505050158015610799573d6000803e3d6000fd5b5060016011600083815260200190815260200160002060030160146101000a81548160ff02191690831515021790555050565b600380546107d990611cba565b80601f016020809104026020016040519081016040528092919081815260200182805461080590611cba565b80156108525780601f1061082757610100808354040283529160200191610852565b820191906000526020600020905b81548152906001019060200180831161083557829003601f168201915b505050505081565b600d6020528060005260406000206000915054906101000a900460ff1681565b6007818154811061088a57600080fd5b906000526020600020016000915054906101000a900473ffffffffffffffffffffffffffffffffffffffff1681565b6000806000806000606080606060008060008060015447601054600e5460008054906101000a900473ffffffffffffffffffffffffffffffffffffffff1660026004600560065430600c54600b60009054906101000a900460ff1686805461092090611cba565b80601f016020809104026020016040519081016040528092919081815260200182805461094c90611cba565b80156109995780601f1061096e57610100808354040283529160200191610999565b820191906000526020600020905b81548152906001019060200180831161097c57829003601f168201915b505050505096508580546109ac90611cba565b80601f01602080910402602001604051908101604052809291908181526020018280546109d890611cba565b8015610a255780601f106109fa57610100808354040283529160200191610a25565b820191906000526020600020905b815481529060010190602001808311610a0857829003601f168201915b50505050509550848054610a3890611cba565b80601f0160208091040260200160405190810160405280929190818152602001828054610a6490611cba565b8015610ab15780601f10610a8657610100808354040283529160200191610ab1565b820191906000526020600020905b815481529060010190602001808311610a9457829003601f168201915b505050505094509b509b509b509b509b509b509b509b509b509b509b509b50909192939495969798999a9b565b60095481565b6000600c54905090565b60088181548110610afe57600080fd5b906000526020600020016000915090505481565b600b60009054906101000a900460ff1681565b60028054610b3290611cba565b80601f0160208091040260200160405190810160405280929190818152602001828054610b5e90611cba565b8015610bab5780601f10610b8057610100808354040283529160200191610bab565b820191906000526020600020905b815481529060010190602001808311610b8e57829003601f168201915b505050505081565b6011602052806000526040600020600091509050806000015490806001018054610bdc90611cba565b80601f0160208091040260200160405190810160405280929190818152602001828054610c0890611cba565b8015610c555780601f10610c2a57610100808354040283529160200191610c55565b820191906000526020600020905b815481529060010190602001808311610c3857829003601f168201915b5050505050908060020154908060030160009054906101000a900473ffffffffffffffffffffffffffffffffffffffff16908060030160149054906101000a900460ff16908060040154905086565b600e5481565b60006011600060106000815480929190610cc390611ceb565b91905055815260200190815260200160002090506001601054610ce69190611d33565b816000018190555083816001019081610cff9190611f13565b50828160020181905550818160030160006101000a81548173ffffffffffffffffffffffffffffffffffffffff021916908373ffffffffffffffffffffffffffffffffffffffff16021790555060008160030160146101000a81548160ff0219169083151502179055506000816004018190555050505050565b60606008805480602002602001604051908101604052809291908181526020018280548015610dc757602002820191906000526020600020905b815481526020019060010190808311610db3575b5050505050905090565b60048054610dde90611cba565b80601f0160208091040260200160405190810160405280929190818152602001828054610e0a90611cba565b8015610e575780601f10610e2c57610100808354040283529160200191610e57565b820191906000526020600020905b815481529060010190602001808311610e3a57829003601f168201915b505050505081565b60105481565b600a8054610e7290611cba565b80601f0160208091040260200160405190810160405280929190818152602001828054610e9e90611cba565b8015610eeb5780601f10610ec057610100808354040283529160200191610eeb565b820191906000526020600020905b815481529060010190602001808311610ece57829003601f168201915b505050505081565b60015481565b60058054610f0690611cba565b80601f0160208091040260200160405190810160405280929190818152602001828054610f3290611cba565b8015610f7f5780601f10610f5457610100808354040283529160200191610f7f565b820191906000526020600020905b815481529060010190602001808311610f6257829003601f168201915b505050505081565b60065481565b60006011600084815260200190815260200160002060050160008373ffffffffffffffffffffffffffffffffffffffff1673ffffffffffffffffffffffffffffffffffffffff16815260200190815260200160002060009054906101000a900460ff16905092915050565b60008054906101000a900473ffffffffffffffffffffffffffffffffffffffff1681565b600f6020528060005260406000206000915054906101000a900460ff1681565b600c5481565b6007339080600181540180825580915050600190039060005260206000200160009091909190916101000a81548173ffffffffffffffffffffffffffffffffffffffff021916908373ffffffffffffffffffffffffffffffffffffffff1602179055506001600d60003373ffffffffffffffffffffffffffffffffffffffff1673ffffffffffffffffffffffffffffffffffffffff16815260200190815260200160002060006101000a81548160ff021916908315150217905550600e600081548092919061111090611ceb565b919050555060083490806001815401808255809150506001900390600052602060002001600090919091909150556000600f60003373ffffffffffffffffffffffffffffffffffffffff1673ffffffffffffffffffffffffffffffffffffffff16815260200190815260200160002060006101000a81548160ff02191690831515021790555060065447106111bb576001600b60006101000a81548160ff0219169083151502179055505b565b600d60003373ffffffffffffffffffffffffffffffffffffffff1673ffffffffffffffffffffffffffffffffffffffff16815260200190815260200160002060009054906101000a900460ff1661121357600080fd5b6011600082815260200190815260200160002060050160003373ffffffffffffffffffffffffffffffffffffffff1673ffffffffffffffffffffffffffffffffffffffff16815260200190815260200160002060009054906101000a900460ff161561127e57600080fd5b60016011600083815260200190815260200160002060050160003373ffffffffffffffffffffffffffffffffffffffff1673ffffffffffffffffffffffffffffffffffffffff16815260200190815260200160002060006101000a81548160ff02191690831515021790555060116000828152602001908152602001600020600401600081548092919061131190611ceb565b919050555050565b6060600780548060200260200160405190810160405280929190818152602001828054801561139d57602002820191906000526020600020905b8160009054906101000a900473ffffffffffffffffffffffffffffffffffffffff1673ffffffffffffffffffffffffffffffffffffffff1681526020019060010190808311611353575b5050505050905090565b6001600f6000600784815481106113c1576113c0611fe5565b5b9060005260206000200160009054906101000a900473ffffffffffffffffffffffffffffffffffffffff1673ffffffffffffffffffffffffffffffffffffffff1673ffffffffffffffffffffffffffffffffffffffff16815260200190815260200160002060006101000a81548160ff0219169083151502179055506007818154811061145157611450611fe5565b5b9060005260206000200160009054906101000a900473ffffffffffffffffffffffffffffffffffffffff1673ffffffffffffffffffffffffffffffffffffffff166108fc600883815481106114a9576114a8611fe5565b5b90600052602060002001549081150290604051600060405180830381858888f193505050501580156114df573d6000803e3d6000fd5b5050565b6000604051905090565b600080fd5b600080fd5b6000819050919050565b61150a816114f7565b811461151557600080fd5b50565b60008135905061152781611501565b92915050565b600060208284031215611543576115426114ed565b5b600061155184828501611518565b91505092915050565b600081519050919050565b600082825260208201905092915050565b60005b83811015611594578082015181840152602081019050611579565b60008484015250505050565b6000601f19601f8301169050919050565b60006115bc8261155a565b6115c68185611565565b93506115d6818560208601611576565b6115df816115a0565b840191505092915050565b6000602082019050818103600083015261160481846115b1565b905092915050565b600073ffffffffffffffffffffffffffffffffffffffff82169050919050565b60006116378261160c565b9050919050565b6116478161162c565b811461165257600080fd5b50565b6000813590506116648161163e565b92915050565b6000602082840312156116805761167f6114ed565b5b600061168e84828501611655565b91505092915050565b60008115159050919050565b6116ac81611697565b82525050565b60006020820190506116c760008301846116a3565b92915050565b6116d68161162c565b82525050565b60006020820190506116f160008301846116cd565b92915050565b611700816114f7565b82525050565b60006101808201905061171c600083018f6116f7565b611729602083018e6116f7565b611736604083018d6116f7565b611743606083018c6116f7565b611750608083018b6116cd565b81810360a0830152611762818a6115b1565b905081810360c083015261177681896115b1565b905081810360e083015261178a81886115b1565b905061179a6101008301876116f7565b6117a86101208301866116cd565b6117b66101408301856116f7565b6117c46101608301846116a3565b9d9c50505050505050505050505050565b60006020820190506117ea60008301846116f7565b92915050565b600060c08201905061180560008301896116f7565b818103602083015261181781886115b1565b905061182660408301876116f7565b61183360608301866116cd565b61184060808301856116a3565b61184d60a08301846116f7565b979650505050505050565b600080fd5b600080fd5b7f4e487b7100000000000000000000000000000000000000000000000000000000600052604160045260246000fd5b61189a826115a0565b810181811067ffffffffffffffff821117156118b9576118b8611862565b5b80604052505050565b60006118cc6114e3565b90506118d88282611891565b919050565b600067ffffffffffffffff8211156118f8576118f7611862565b5b611901826115a0565b9050602081019050919050565b82818337600083830152505050565b600061193061192b846118dd565b6118c2565b90508281526020810184848401111561194c5761194b61185d565b5b61195784828561190e565b509392505050565b600082601f83011261197457611973611858565b5b813561198484826020860161191d565b91505092915050565b6000806000606084860312156119a6576119a56114ed565b5b600084013567ffffffffffffffff8111156119c4576119c36114f2565b5b6119d08682870161195f565b93505060206119e186828701611518565b92505060406119f286828701611655565b9150509250925092565b600081519050919050565b600082825260208201905092915050565b6000819050602082019050919050565b611a31816114f7565b82525050565b6000611a438383611a28565b60208301905092915050565b6000602082019050919050565b6000611a67826119fc565b611a718185611a07565b9350611a7c83611a18565b8060005b83811015611aad578151611a948882611a37565b9750611a9f83611a4f565b925050600181019050611a80565b5085935050505092915050565b60006020820190508181036000830152611ad48184611a5c565b905092915050565b60008060408385031215611af357611af26114ed565b5b6000611b0185828601611518565b9250506020611b1285828601611655565b9150509250929050565b600081519050919050565b600082825260208201905092915050565b6000819050602082019050919050565b611b518161162c565b82525050565b6000611b638383611b48565b60208301905092915050565b6000602082019050919050565b6000611b8782611b1c565b611b918185611b27565b9350611b9c83611b38565b8060005b83811015611bcd578151611bb48882611b57565b9750611bbf83611b6f565b925050600181019050611ba0565b5085935050505092915050565b60006020820190508181036000830152611bf48184611b7c565b905092915050565b7f4e487b7100000000000000000000000000000000000000000000000000000000600052601260045260246000fd5b7f4e487b7100000000000000000000000000000000000000000000000000000000600052601160045260246000fd5b6000611c65826114f7565b9150611c70836114f7565b925082611c8057611c7f611bfc565b5b828204905092915050565b7f4e487b7100000000000000000000000000000000000000000000000000000000600052602260045260246000fd5b60006002820490506001821680611cd257607f821691505b602082108103611ce557611ce4611c8b565b5b50919050565b6000611cf6826114f7565b91507fffffffffffffffffffffffffffffffffffffffffffffffffffffffffffffffff8203611d2857611d27611c2b565b5b600182019050919050565b6000611d3e826114f7565b9150611d49836114f7565b9250828203905081811115611d6157611d60611c2b565b5b92915050565b60008190508160005260206000209050919050565b60006020601f8301049050919050565b600082821b905092915050565b600060088302611dc97fffffffffffffffffffffffffffffffffffffffffffffffffffffffffffffffff82611d8c565b611dd38683611d8c565b95508019841693508086168417925050509392505050565b6000819050919050565b6000611e10611e0b611e06846114f7565b611deb565b6114f7565b9050919050565b6000819050919050565b611e2a83611df5565b611e3e611e3682611e17565b848454611d99565b825550505050565b600090565b611e53611e46565b611e5e818484611e21565b505050565b5b81811015611e8257611e77600082611e4b565b600181019050611e64565b5050565b601f821115611ec757611e9881611d67565b611ea184611d7c565b81016020851015611eb0578190505b611ec4611ebc85611d7c565b830182611e63565b50505b505050565b600082821c905092915050565b6000611eea60001984600802611ecc565b1980831691505092915050565b6000611f038383611ed9565b9150826002028217905092915050565b611f1c8261155a565b67ffffffffffffffff811115611f3557611f34611862565b5b611f3f8254611cba565b611f4a828285611e86565b600060209050601f831160018114611f7d5760008415611f6b578287015190505b611f758582611ef7565b865550611fdd565b601f198416611f8b86611d67565b60005b82811015611fb357848901518255600182019150602085019450602081019050611f8e565b86831015611fd05784890151611fcc601f891682611ed9565b8355505b6001600288020188555050505b505050505050565b7f4e487b7100000000000000000000000000000000000000000000000000000000600052603260045260246000fdfea264697066735822122005f49dd2cd3e874d4ddf8b74dd733264355a86ee31962004e71325da7bc4695564736f6c63430008110033a26469706673582212203dea55ffb532f5ebdbe64926fa656525b7a916d5beeb6466241825c3e569046964736f6c63430008110033",
  "linkReferences": {},
  "deployedLinkReferences": {}
}