{
    "_format": "hh-sol-artifact-1",
    "contractName": "CampaignFactory",
    "sourceName": "contracts/Campaign.sol",
    "abi": [
        {
            "inputs": [
                {
                    "internalType": "uint256",
                    "name": "minimum",
                    "type": "uint256"
                },
                {
                    "internalType": "string",
                    "name": "name",
                    "type": "string"
                },
                {
                    "internalType": "string",
                    "name": "description",
                    "type": "string"
                },
                {
                    "internalType": "string",
                    "name": "image",
                    "type": "string"
                },
                {
                    "internalType": "uint256",
                    "name": "target",
                    "type": "uint256"
                },
                {
                    "internalType": "uint256",
                    "name": "_datecreated",
                    "type": "uint256"
                },
                {
                    "internalType": "string",
                    "name": "_Link",
                    "type": "string"
                }
            ],
            "name": "createCampaign",
            "outputs": [],
            "stateMutability": "nonpayable",
            "type": "function"
        },
        {
            "inputs": [
                {
                    "internalType": "uint256",
                    "name": "",
                    "type": "uint256"
                }
            ],
            "name": "deployedCampaigns",
            "outputs": [
                {
                    "internalType": "address",
                    "name": "",
                    "type": "address"
                }
            ],
            "stateMutability": "view",
            "type": "function"
        },
        {
            "inputs": [],
            "name": "getDeployedCampaigns",
            "outputs": [
                {
                    "internalType": "address[]",
                    "name": "",
                    "type": "address[]"
                }
            ],
            "stateMutability": "view",
            "type": "function"
        }
    ],
    "bytecode": "0x608060405234801561001057600080fd5b5061262e806100206000396000f3fe60806040523480156200001157600080fd5b5060043610620000465760003560e01c8063339d50a5146200004b5780634acb9d4f1462000081578063b85eec9214620000a3575b600080fd5b620000696004803603810190620000639190620002a8565b620000c3565b6040516200007891906200031f565b60405180910390f35b6200008b62000103565b6040516200009a91906200040a565b60405180910390f35b620000c16004803603810190620000bb919062000590565b62000193565b005b60008181548110620000d457600080fd5b906000526020600020016000915054906101000a900473ffffffffffffffffffffffffffffffffffffffff1681565b606060008054806020026020016040519081016040528092919081815260200182805480156200018957602002820191906000526020600020905b8160009054906101000a900473ffffffffffffffffffffffffffffffffffffffff1673ffffffffffffffffffffffffffffffffffffffff16815260200190600101908083116200013e575b5050505050905090565b60008733888888888888604051620001ab906200024b565b620001be98979695949392919062000759565b604051809103906000f080158015620001db573d6000803e3d6000fd5b5090506000819080600181540180825580915050600190039060005260206000200160009091909190916101000a81548173ffffffffffffffffffffffffffffffffffffffff021916908373ffffffffffffffffffffffffffffffffffffffff1602179055505050505050505050565b611df5806200080483390190565b6000604051905090565b600080fd5b600080fd5b6000819050919050565b62000282816200026d565b81146200028e57600080fd5b50565b600081359050620002a28162000277565b92915050565b600060208284031215620002c157620002c062000263565b5b6000620002d18482850162000291565b91505092915050565b600073ffffffffffffffffffffffffffffffffffffffff82169050919050565b60006200030782620002da565b9050919050565b6200031981620002fa565b82525050565b60006020820190506200033660008301846200030e565b92915050565b600081519050919050565b600082825260208201905092915050565b6000819050602082019050919050565b6200037381620002fa565b82525050565b600062000387838362000368565b60208301905092915050565b6000602082019050919050565b6000620003ad826200033c565b620003b9818562000347565b9350620003c68362000358565b8060005b83811015620003fd578151620003e1888262000379565b9750620003ee8362000393565b925050600181019050620003ca565b5085935050505092915050565b60006020820190508181036000830152620004268184620003a0565b905092915050565b600080fd5b600080fd5b6000601f19601f8301169050919050565b7f4e487b7100000000000000000000000000000000000000000000000000000000600052604160045260246000fd5b620004838262000438565b810181811067ffffffffffffffff82111715620004a557620004a462000449565b5b80604052505050565b6000620004ba62000259565b9050620004c8828262000478565b919050565b600067ffffffffffffffff821115620004eb57620004ea62000449565b5b620004f68262000438565b9050602081019050919050565b82818337600083830152505050565b6000620005296200052384620004cd565b620004ae565b90508281526020810184848401111562000548576200054762000433565b5b6200055584828562000503565b509392505050565b600082601f8301126200057557620005746200042e565b5b81356200058784826020860162000512565b91505092915050565b600080600080600080600060e0888a031215620005b257620005b162000263565b5b6000620005c28a828b0162000291565b975050602088013567ffffffffffffffff811115620005e657620005e562000268565b5b620005f48a828b016200055d565b965050604088013567ffffffffffffffff81111562000618576200061762000268565b5b620006268a828b016200055d565b955050606088013567ffffffffffffffff8111156200064a576200064962000268565b5b620006588a828b016200055d565b94505060806200066b8a828b0162000291565b93505060a06200067e8a828b0162000291565b92505060c088013567ffffffffffffffff811115620006a257620006a162000268565b5b620006b08a828b016200055d565b91505092959891949750929550565b620006ca816200026d565b82525050565b600081519050919050565b600082825260208201905092915050565b60005b838110156200070c578082015181840152602081019050620006ef565b60008484015250505050565b60006200072582620006d0565b620007318185620006db565b935062000743818560208601620006ec565b6200074e8162000438565b840191505092915050565b60006101008201905062000771600083018b620006bf565b62000780602083018a6200030e565b818103604083015262000794818962000718565b90508181036060830152620007aa818862000718565b90508181036080830152620007c0818762000718565b9050620007d160a0830186620006bf565b620007e060c0830185620006bf565b81810360e0830152620007f4818462000718565b9050999850505050505050505056fe60806040523480156200001157600080fd5b5060405162001df538038062001df5833981810160405281019062000037919062000315565b866000806101000a81548173ffffffffffffffffffffffffffffffffffffffff021916908373ffffffffffffffffffffffffffffffffffffffff1602179055508760018190555085600290816200008f91906200069b565b508460049081620000a191906200069b565b508360059081620000b391906200069b565b5082600681905550816008819055508060099081620000d391906200069b565b50505050505050505062000782565b6000604051905090565b600080fd5b600080fd5b6000819050919050565b6200010b81620000f6565b81146200011757600080fd5b50565b6000815190506200012b8162000100565b92915050565b600073ffffffffffffffffffffffffffffffffffffffff82169050919050565b60006200015e8262000131565b9050919050565b620001708162000151565b81146200017c57600080fd5b50565b600081519050620001908162000165565b92915050565b600080fd5b600080fd5b6000601f19601f8301169050919050565b7f4e487b7100000000000000000000000000000000000000000000000000000000600052604160045260246000fd5b620001eb82620001a0565b810181811067ffffffffffffffff821117156200020d576200020c620001b1565b5b80604052505050565b600062000222620000e2565b9050620002308282620001e0565b919050565b600067ffffffffffffffff821115620002535762000252620001b1565b5b6200025e82620001a0565b9050602081019050919050565b60005b838110156200028b5780820151818401526020810190506200026e565b60008484015250505050565b6000620002ae620002a88462000235565b62000216565b905082815260208101848484011115620002cd57620002cc6200019b565b5b620002da8482856200026b565b509392505050565b600082601f830112620002fa57620002f962000196565b5b81516200030c84826020860162000297565b91505092915050565b600080600080600080600080610100898b031215620003395762000338620000ec565b5b6000620003498b828c016200011a565b98505060206200035c8b828c016200017f565b975050604089015167ffffffffffffffff81111562000380576200037f620000f1565b5b6200038e8b828c01620002e2565b965050606089015167ffffffffffffffff811115620003b257620003b1620000f1565b5b620003c08b828c01620002e2565b955050608089015167ffffffffffffffff811115620003e457620003e3620000f1565b5b620003f28b828c01620002e2565b94505060a0620004058b828c016200011a565b93505060c0620004188b828c016200011a565b92505060e089015167ffffffffffffffff8111156200043c576200043b620000f1565b5b6200044a8b828c01620002e2565b9150509295985092959890939650565b600081519050919050565b7f4e487b7100000000000000000000000000000000000000000000000000000000600052602260045260246000fd5b60006002820490506001821680620004ad57607f821691505b602082108103620004c357620004c262000465565b5b50919050565b60008190508160005260206000209050919050565b60006020601f8301049050919050565b600082821b905092915050565b6000600883026200052d7fffffffffffffffffffffffffffffffffffffffffffffffffffffffffffffffff82620004ee565b620005398683620004ee565b95508019841693508086168417925050509392505050565b6000819050919050565b60006200057c620005766200057084620000f6565b62000551565b620000f6565b9050919050565b6000819050919050565b62000598836200055b565b620005b0620005a78262000583565b848454620004fb565b825550505050565b600090565b620005c7620005b8565b620005d48184846200058d565b505050565b5b81811015620005fc57620005f0600082620005bd565b600181019050620005da565b5050565b601f8211156200064b576200061581620004c9565b6200062084620004de565b8101602085101562000630578190505b620006486200063f85620004de565b830182620005d9565b50505b505050565b600082821c905092915050565b6000620006706000198460080262000650565b1980831691505092915050565b60006200068b83836200065d565b9150826002028217905092915050565b620006a6826200045a565b67ffffffffffffffff811115620006c257620006c1620001b1565b5b620006ce825462000494565b620006db82828562000600565b600060209050601f831160018114620007135760008415620006fe578287015190505b6200070a85826200067d565b8655506200077a565b601f1984166200072386620004c9565b60005b828110156200074d5784890151825560018201915060208501945060208101905062000726565b868310156200076d578489015162000769601f8916826200065d565b8355505b6001600288020188555050505b505050505050565b61166380620007926000396000f3fe6080604052600436106101095760003560e01c806397654a8c11610095578063aba8315011610064578063aba8315014610358578063b2a87fc314610383578063b4a99a4e146103ae578063d7bb99ba146103d9578063d7d1bbdb146103e357610109565b806397654a8c146102ac5780639fb42b1f146102d7578063a128dfa314610302578063a7f337151461032d57610109565b80634051ddac116100dc5780634051ddac146101cf57806341f72d38146102025780637e7cd1b31461022d57806382fde093146102585780638a9cfd551461028357610109565b8063034410061461010e5780630873a2e61461012a5780630a144391146101555780631fbed57914610192575b600080fd5b61012860048036038101906101239190610dfc565b61040c565b005b34801561013657600080fd5b5061013f61052f565b60405161014c9190610eb9565b60405180910390f35b34801561016157600080fd5b5061017c60048036038101906101779190610f39565b6105bd565b6040516101899190610f81565b60405180910390f35b34801561019e57600080fd5b506101b960048036038101906101b49190610dfc565b6105dd565b6040516101c69190610fab565b60405180910390f35b3480156101db57600080fd5b506101e461061c565b6040516101f999989796959493929190610fd5565b60405180910390f35b34801561020e57600080fd5b50610217610820565b6040516102249190611077565b60405180910390f35b34801561023957600080fd5b50610242610826565b60405161024f9190610eb9565b60405180910390f35b34801561026457600080fd5b5061026d6108b4565b60405161027a9190611077565b60405180910390f35b34801561028f57600080fd5b506102aa60048036038101906102a591906111c7565b6108ba565b005b3480156102b857600080fd5b506102c1610972565b6040516102ce9190610eb9565b60405180910390f35b3480156102e357600080fd5b506102ec610a00565b6040516102f99190611077565b60405180910390f35b34801561030e57600080fd5b50610317610a06565b6040516103249190610eb9565b60405180910390f35b34801561033957600080fd5b50610342610a94565b60405161034f9190611077565b60405180910390f35b34801561036457600080fd5b5061036d610a9a565b60405161037a9190610eb9565b60405180910390f35b34801561038f57600080fd5b50610398610b28565b6040516103a59190611077565b60405180910390f35b3480156103ba57600080fd5b506103c3610b2e565b6040516103d09190610fab565b60405180910390f35b6103e1610b52565b005b3480156103ef57600080fd5b5061040a60048036038101906104059190610dfc565b610c56565b005b6002600b5461041b9190611294565b600d6000838152602001908152602001600020600301541161043c57600080fd5b600d600082815260200190815260200160002060020160149054906101000a900460ff161561046a57600080fd5b600d600082815260200190815260200160002060020160009054906101000a900473ffffffffffffffffffffffffffffffffffffffff1673ffffffffffffffffffffffffffffffffffffffff166108fc600d6000848152602001908152602001600020600101549081150290604051600060405180830381858888f193505050501580156104fc573d6000803e3d6000fd5b506001600d600083815260200190815260200160002060020160146101000a81548160ff02191690831515021790555050565b6003805461053c906112f4565b80601f0160208091040260200160405190810160405280929190818152602001828054610568906112f4565b80156105b55780601f1061058a576101008083540402835291602001916105b5565b820191906000526020600020905b81548152906001019060200180831161059857829003601f168201915b505050505081565b600a6020528060005260406000206000915054906101000a900460ff1681565b600781815481106105ed57600080fd5b906000526020600020016000915054906101000a900473ffffffffffffffffffffffffffffffffffffffff1681565b60008060008060006060806060600060015447600c54600b5460008054906101000a900473ffffffffffffffffffffffffffffffffffffffff1660026004600560065483805461066b906112f4565b80601f0160208091040260200160405190810160405280929190818152602001828054610697906112f4565b80156106e45780601f106106b9576101008083540402835291602001916106e4565b820191906000526020600020905b8154815290600101906020018083116106c757829003601f168201915b505050505093508280546106f7906112f4565b80601f0160208091040260200160405190810160405280929190818152602001828054610723906112f4565b80156107705780601f1061074557610100808354040283529160200191610770565b820191906000526020600020905b81548152906001019060200180831161075357829003601f168201915b50505050509250818054610783906112f4565b80601f01602080910402602001604051908101604052809291908181526020018280546107af906112f4565b80156107fc5780601f106107d1576101008083540402835291602001916107fc565b820191906000526020600020905b8154815290600101906020018083116107df57829003601f168201915b50505050509150985098509850985098509850985098509850909192939495969798565b60085481565b60028054610833906112f4565b80601f016020809104026020016040519081016040528092919081815260200182805461085f906112f4565b80156108ac5780601f10610881576101008083540402835291602001916108ac565b820191906000526020600020905b81548152906001019060200180831161088f57829003601f168201915b505050505081565b600b5481565b6000600d6000600c60008154809291906108d390611325565b9190505581526020019081526020016000209050838160000190816108f89190611519565b50828160010181905550818160020160006101000a81548173ffffffffffffffffffffffffffffffffffffffff021916908373ffffffffffffffffffffffffffffffffffffffff16021790555060008160020160146101000a81548160ff0219169083151502179055506000816003018190555050505050565b6004805461097f906112f4565b80601f01602080910402602001604051908101604052809291908181526020018280546109ab906112f4565b80156109f85780601f106109cd576101008083540402835291602001916109f8565b820191906000526020600020905b8154815290600101906020018083116109db57829003601f168201915b505050505081565b600c5481565b60098054610a13906112f4565b80601f0160208091040260200160405190810160405280929190818152602001828054610a3f906112f4565b8015610a8c5780601f10610a6157610100808354040283529160200191610a8c565b820191906000526020600020905b815481529060010190602001808311610a6f57829003601f168201915b505050505081565b60015481565b60058054610aa7906112f4565b80601f0160208091040260200160405190810160405280929190818152602001828054610ad3906112f4565b8015610b205780601f10610af557610100808354040283529160200191610b20565b820191906000526020600020905b815481529060010190602001808311610b0357829003601f168201915b505050505081565b60065481565b60008054906101000a900473ffffffffffffffffffffffffffffffffffffffff1681565b6008544210610b6057600080fd5b670de0b6b3a7640000600154610b7691906115eb565b3411610b8157600080fd5b6007339080600181540180825580915050600190039060005260206000200160009091909190916101000a81548173ffffffffffffffffffffffffffffffffffffffff021916908373ffffffffffffffffffffffffffffffffffffffff1602179055506001600a60003373ffffffffffffffffffffffffffffffffffffffff1673ffffffffffffffffffffffffffffffffffffffff16815260200190815260200160002060006101000a81548160ff021916908315150217905550600b6000815480929190610c4f90611325565b9190505550565b600a60003373ffffffffffffffffffffffffffffffffffffffff1673ffffffffffffffffffffffffffffffffffffffff16815260200190815260200160002060009054906101000a900460ff16610cac57600080fd5b600d600082815260200190815260200160002060040160003373ffffffffffffffffffffffffffffffffffffffff1673ffffffffffffffffffffffffffffffffffffffff16815260200190815260200160002060009054906101000a900460ff1615610d1757600080fd5b6001600d600083815260200190815260200160002060040160003373ffffffffffffffffffffffffffffffffffffffff1673ffffffffffffffffffffffffffffffffffffffff16815260200190815260200160002060006101000a81548160ff021916908315150217905550600d60008281526020019081526020016000206003016000815480929190610daa90611325565b919050555050565b6000604051905090565b600080fd5b600080fd5b6000819050919050565b610dd981610dc6565b8114610de457600080fd5b50565b600081359050610df681610dd0565b92915050565b600060208284031215610e1257610e11610dbc565b5b6000610e2084828501610de7565b91505092915050565b600081519050919050565b600082825260208201905092915050565b60005b83811015610e63578082015181840152602081019050610e48565b60008484015250505050565b6000601f19601f8301169050919050565b6000610e8b82610e29565b610e958185610e34565b9350610ea5818560208601610e45565b610eae81610e6f565b840191505092915050565b60006020820190508181036000830152610ed38184610e80565b905092915050565b600073ffffffffffffffffffffffffffffffffffffffff82169050919050565b6000610f0682610edb565b9050919050565b610f1681610efb565b8114610f2157600080fd5b50565b600081359050610f3381610f0d565b92915050565b600060208284031215610f4f57610f4e610dbc565b5b6000610f5d84828501610f24565b91505092915050565b60008115159050919050565b610f7b81610f66565b82525050565b6000602082019050610f966000830184610f72565b92915050565b610fa581610efb565b82525050565b6000602082019050610fc06000830184610f9c565b92915050565b610fcf81610dc6565b82525050565b600061012082019050610feb600083018c610fc6565b610ff8602083018b610fc6565b611005604083018a610fc6565b6110126060830189610fc6565b61101f6080830188610f9c565b81810360a08301526110318187610e80565b905081810360c08301526110458186610e80565b905081810360e08301526110598185610e80565b9050611069610100830184610fc6565b9a9950505050505050505050565b600060208201905061108c6000830184610fc6565b92915050565b600080fd5b600080fd5b7f4e487b7100000000000000000000000000000000000000000000000000000000600052604160045260246000fd5b6110d482610e6f565b810181811067ffffffffffffffff821117156110f3576110f261109c565b5b80604052505050565b6000611106610db2565b905061111282826110cb565b919050565b600067ffffffffffffffff8211156111325761113161109c565b5b61113b82610e6f565b9050602081019050919050565b82818337600083830152505050565b600061116a61116584611117565b6110fc565b90508281526020810184848401111561118657611185611097565b5b611191848285611148565b509392505050565b600082601f8301126111ae576111ad611092565b5b81356111be848260208601611157565b91505092915050565b6000806000606084860312156111e0576111df610dbc565b5b600084013567ffffffffffffffff8111156111fe576111fd610dc1565b5b61120a86828701611199565b935050602061121b86828701610de7565b925050604061122c86828701610f24565b9150509250925092565b7f4e487b7100000000000000000000000000000000000000000000000000000000600052601260045260246000fd5b7f4e487b7100000000000000000000000000000000000000000000000000000000600052601160045260246000fd5b600061129f82610dc6565b91506112aa83610dc6565b9250826112ba576112b9611236565b5b828204905092915050565b7f4e487b7100000000000000000000000000000000000000000000000000000000600052602260045260246000fd5b6000600282049050600182168061130c57607f821691505b60208210810361131f5761131e6112c5565b5b50919050565b600061133082610dc6565b91507fffffffffffffffffffffffffffffffffffffffffffffffffffffffffffffffff820361136257611361611265565b5b600182019050919050565b60008190508160005260206000209050919050565b60006020601f8301049050919050565b600082821b905092915050565b6000600883026113cf7fffffffffffffffffffffffffffffffffffffffffffffffffffffffffffffffff82611392565b6113d98683611392565b95508019841693508086168417925050509392505050565b6000819050919050565b600061141661141161140c84610dc6565b6113f1565b610dc6565b9050919050565b6000819050919050565b611430836113fb565b61144461143c8261141d565b84845461139f565b825550505050565b600090565b61145961144c565b611464818484611427565b505050565b5b818110156114885761147d600082611451565b60018101905061146a565b5050565b601f8211156114cd5761149e8161136d565b6114a784611382565b810160208510156114b6578190505b6114ca6114c285611382565b830182611469565b50505b505050565b600082821c905092915050565b60006114f0600019846008026114d2565b1980831691505092915050565b600061150983836114df565b9150826002028217905092915050565b61152282610e29565b67ffffffffffffffff81111561153b5761153a61109c565b5b61154582546112f4565b61155082828561148c565b600060209050601f8311600181146115835760008415611571578287015190505b61157b85826114fd565b8655506115e3565b601f1984166115918661136d565b60005b828110156115b957848901518255600182019150602085019450602081019050611594565b868310156115d657848901516115d2601f8916826114df565b8355505b6001600288020188555050505b505050505050565b60006115f682610dc6565b915061160183610dc6565b925082820261160f81610dc6565b9150828204841483151761162657611625611265565b5b509291505056fea264697066735822122005a204246a091e26586fd91ed778911790775f68e593dcff178441f2a34509da64736f6c63430008110033a26469706673582212202369e6595e14a22faa07ea81b0f607dbc8d6ab5bfb0cf8e573964586bf8b801264736f6c63430008110033",
    "linkReferences": {},
    "deployedLinkReferences": {}
}