{
  "_format": "hh-sol-artifact-1",
  "contractName": "Campaign",
  "sourceName": "contracts/Campaign.sol",
  "abi": [
    {
      "inputs": [
        {
          "internalType": "uint256",
          "name": "minimun",
          "type": "uint256"
        },
        {
          "internalType": "address",
          "name": "creator",
          "type": "address"
        },
        {
          "internalType": "string",
          "name": "name",
          "type": "string"
        },
        {
          "internalType": "string",
          "name": "description",
          "type": "string"
        },
        {
          "internalType": "string",
          "name": "image",
          "type": "string"
        },
        {
          "internalType": "uint256",
          "name": "target",
          "type": "uint256"
        },
        {
          "internalType": "uint256",
          "name": "_datecreated",
          "type": "uint256"
        },
        {
          "internalType": "string",
          "name": "_Link",
          "type": "string"
        }
      ],
      "stateMutability": "nonpayable",
      "type": "constructor"
    },
    {
      "inputs": [],
      "name": "CampaignDescription",
      "outputs": [
        {
          "internalType": "string",
          "name": "",
          "type": "string"
        }
      ],
      "stateMutability": "view",
      "type": "function"
    },
    {
      "inputs": [],
      "name": "CampaignName",
      "outputs": [
        {
          "internalType": "string",
          "name": "",
          "type": "string"
        }
      ],
      "stateMutability": "view",
      "type": "function"
    },
    {
      "inputs": [],
      "name": "DateCreated",
      "outputs": [
        {
          "internalType": "uint256",
          "name": "",
          "type": "uint256"
        }
      ],
      "stateMutability": "view",
      "type": "function"
    },
    {
      "inputs": [],
      "name": "Owner",
      "outputs": [
        {
          "internalType": "address",
          "name": "",
          "type": "address"
        }
      ],
      "stateMutability": "view",
      "type": "function"
    },
    {
      "inputs": [],
      "name": "SubTitle",
      "outputs": [
        {
          "internalType": "string",
          "name": "",
          "type": "string"
        }
      ],
      "stateMutability": "view",
      "type": "function"
    },
    {
      "inputs": [],
      "name": "WebLink",
      "outputs": [
        {
          "internalType": "string",
          "name": "",
          "type": "string"
        }
      ],
      "stateMutability": "view",
      "type": "function"
    },
    {
      "inputs": [
        {
          "internalType": "uint256",
          "name": "index",
          "type": "uint256"
        }
      ],
      "name": "approveRequest",
      "outputs": [],
      "stateMutability": "nonpayable",
      "type": "function"
    },
    {
      "inputs": [
        {
          "internalType": "address",
          "name": "",
          "type": "address"
        }
      ],
      "name": "approvers",
      "outputs": [
        {
          "internalType": "bool",
          "name": "",
          "type": "bool"
        }
      ],
      "stateMutability": "view",
      "type": "function"
    },
    {
      "inputs": [],
      "name": "approversCount",
      "outputs": [
        {
          "internalType": "uint256",
          "name": "",
          "type": "uint256"
        }
      ],
      "stateMutability": "view",
      "type": "function"
    },
    {
      "inputs": [],
      "name": "contribute",
      "outputs": [],
      "stateMutability": "payable",
      "type": "function"
    },
    {
      "inputs": [
        {
          "internalType": "uint256",
          "name": "",
          "type": "uint256"
        }
      ],
      "name": "contributers",
      "outputs": [
        {
          "internalType": "address",
          "name": "",
          "type": "address"
        }
      ],
      "stateMutability": "view",
      "type": "function"
    },
    {
      "inputs": [
        {
          "internalType": "string",
          "name": "_description",
          "type": "string"
        },
        {
          "internalType": "uint256",
          "name": "_value",
          "type": "uint256"
        },
        {
          "internalType": "address",
          "name": "_recipient",
          "type": "address"
        }
      ],
      "name": "createRequest",
      "outputs": [],
      "stateMutability": "nonpayable",
      "type": "function"
    },
    {
      "inputs": [
        {
          "internalType": "uint256",
          "name": "index",
          "type": "uint256"
        }
      ],
      "name": "finalizeRequest",
      "outputs": [],
      "stateMutability": "payable",
      "type": "function"
    },
    {
      "inputs": [],
      "name": "getSummary",
      "outputs": [
        {
          "internalType": "uint256",
          "name": "",
          "type": "uint256"
        },
        {
          "internalType": "uint256",
          "name": "",
          "type": "uint256"
        },
        {
          "internalType": "uint256",
          "name": "",
          "type": "uint256"
        },
        {
          "internalType": "uint256",
          "name": "",
          "type": "uint256"
        },
        {
          "internalType": "address",
          "name": "",
          "type": "address"
        },
        {
          "internalType": "string",
          "name": "",
          "type": "string"
        },
        {
          "internalType": "string",
          "name": "",
          "type": "string"
        },
        {
          "internalType": "string",
          "name": "",
          "type": "string"
        },
        {
          "internalType": "uint256",
          "name": "",
          "type": "uint256"
        },
        {
          "internalType": "address",
          "name": "",
          "type": "address"
        }
      ],
      "stateMutability": "view",
      "type": "function"
    },
    {
      "inputs": [],
      "name": "imageUrl",
      "outputs": [
        {
          "internalType": "string",
          "name": "",
          "type": "string"
        }
      ],
      "stateMutability": "view",
      "type": "function"
    },
    {
      "inputs": [],
      "name": "minimunContribution",
      "outputs": [
        {
          "internalType": "uint256",
          "name": "",
          "type": "uint256"
        }
      ],
      "stateMutability": "view",
      "type": "function"
    },
    {
      "inputs": [],
      "name": "numRequests",
      "outputs": [
        {
          "internalType": "uint256",
          "name": "",
          "type": "uint256"
        }
      ],
      "stateMutability": "view",
      "type": "function"
    },
    {
      "inputs": [],
      "name": "targetToAchieve",
      "outputs": [
        {
          "internalType": "uint256",
          "name": "",
          "type": "uint256"
        }
      ],
      "stateMutability": "view",
      "type": "function"
    }
  ],
  "bytecode": "0x60806040523480156200001157600080fd5b5060405162001d9938038062001d99833981810160405281019062000037919062000315565b866000806101000a81548173ffffffffffffffffffffffffffffffffffffffff021916908373ffffffffffffffffffffffffffffffffffffffff1602179055508760018190555085600290816200008f91906200069b565b508460049081620000a191906200069b565b508360059081620000b391906200069b565b5082600681905550816008819055508060099081620000d391906200069b565b50505050505050505062000782565b6000604051905090565b600080fd5b600080fd5b6000819050919050565b6200010b81620000f6565b81146200011757600080fd5b50565b6000815190506200012b8162000100565b92915050565b600073ffffffffffffffffffffffffffffffffffffffff82169050919050565b60006200015e8262000131565b9050919050565b620001708162000151565b81146200017c57600080fd5b50565b600081519050620001908162000165565b92915050565b600080fd5b600080fd5b6000601f19601f8301169050919050565b7f4e487b7100000000000000000000000000000000000000000000000000000000600052604160045260246000fd5b620001eb82620001a0565b810181811067ffffffffffffffff821117156200020d576200020c620001b1565b5b80604052505050565b600062000222620000e2565b9050620002308282620001e0565b919050565b600067ffffffffffffffff821115620002535762000252620001b1565b5b6200025e82620001a0565b9050602081019050919050565b60005b838110156200028b5780820151818401526020810190506200026e565b60008484015250505050565b6000620002ae620002a88462000235565b62000216565b905082815260208101848484011115620002cd57620002cc6200019b565b5b620002da8482856200026b565b509392505050565b600082601f830112620002fa57620002f962000196565b5b81516200030c84826020860162000297565b91505092915050565b600080600080600080600080610100898b031215620003395762000338620000ec565b5b6000620003498b828c016200011a565b98505060206200035c8b828c016200017f565b975050604089015167ffffffffffffffff81111562000380576200037f620000f1565b5b6200038e8b828c01620002e2565b965050606089015167ffffffffffffffff811115620003b257620003b1620000f1565b5b620003c08b828c01620002e2565b955050608089015167ffffffffffffffff811115620003e457620003e3620000f1565b5b620003f28b828c01620002e2565b94505060a0620004058b828c016200011a565b93505060c0620004188b828c016200011a565b92505060e089015167ffffffffffffffff8111156200043c576200043b620000f1565b5b6200044a8b828c01620002e2565b9150509295985092959890939650565b600081519050919050565b7f4e487b7100000000000000000000000000000000000000000000000000000000600052602260045260246000fd5b60006002820490506001821680620004ad57607f821691505b602082108103620004c357620004c262000465565b5b50919050565b60008190508160005260206000209050919050565b60006020601f8301049050919050565b600082821b905092915050565b6000600883026200052d7fffffffffffffffffffffffffffffffffffffffffffffffffffffffffffffffff82620004ee565b620005398683620004ee565b95508019841693508086168417925050509392505050565b6000819050919050565b60006200057c620005766200057084620000f6565b62000551565b620000f6565b9050919050565b6000819050919050565b62000598836200055b565b620005b0620005a78262000583565b848454620004fb565b825550505050565b600090565b620005c7620005b8565b620005d48184846200058d565b505050565b5b81811015620005fc57620005f0600082620005bd565b600181019050620005da565b5050565b601f8211156200064b576200061581620004c9565b6200062084620004de565b8101602085101562000630578190505b620006486200063f85620004de565b830182620005d9565b50505b505050565b600082821c905092915050565b6000620006706000198460080262000650565b1980831691505092915050565b60006200068b83836200065d565b9150826002028217905092915050565b620006a6826200045a565b67ffffffffffffffff811115620006c257620006c1620001b1565b5b620006ce825462000494565b620006db82828562000600565b600060209050601f831160018114620007135760008415620006fe578287015190505b6200070a85826200067d565b8655506200077a565b601f1984166200072386620004c9565b60005b828110156200074d5784890151825560018201915060208501945060208101905062000726565b868310156200076d578489015162000769601f8916826200065d565b8355505b6001600288020188555050505b505050505050565b61160780620007926000396000f3fe6080604052600436106101095760003560e01c806397654a8c11610095578063aba8315011610064578063aba8315014610359578063b2a87fc314610384578063b4a99a4e146103af578063d7bb99ba146103da578063d7d1bbdb146103e457610109565b806397654a8c146102ad5780639fb42b1f146102d8578063a128dfa314610303578063a7f337151461032e57610109565b80634051ddac116100dc5780634051ddac146101cf57806341f72d38146102035780637e7cd1b31461022e57806382fde093146102595780638a9cfd551461028457610109565b8063034410061461010e5780630873a2e61461012a5780630a144391146101555780631fbed57914610192575b600080fd5b61012860048036038101906101239190610dd3565b61040d565b005b34801561013657600080fd5b5061013f610530565b60405161014c9190610e90565b60405180910390f35b34801561016157600080fd5b5061017c60048036038101906101779190610f10565b6105be565b6040516101899190610f58565b60405180910390f35b34801561019e57600080fd5b506101b960048036038101906101b49190610dd3565b6105de565b6040516101c69190610f82565b60405180910390f35b3480156101db57600080fd5b506101e461061d565b6040516101fa9a99989796959493929190610fac565b60405180910390f35b34801561020f57600080fd5b50610218610826565b604051610225919061105d565b60405180910390f35b34801561023a57600080fd5b5061024361082c565b6040516102509190610e90565b60405180910390f35b34801561026557600080fd5b5061026e6108ba565b60405161027b919061105d565b60405180910390f35b34801561029057600080fd5b506102ab60048036038101906102a691906111ad565b6108c0565b005b3480156102b957600080fd5b506102c2610978565b6040516102cf9190610e90565b60405180910390f35b3480156102e457600080fd5b506102ed610a06565b6040516102fa919061105d565b60405180910390f35b34801561030f57600080fd5b50610318610a0c565b6040516103259190610e90565b60405180910390f35b34801561033a57600080fd5b50610343610a9a565b604051610350919061105d565b60405180910390f35b34801561036557600080fd5b5061036e610aa0565b60405161037b9190610e90565b60405180910390f35b34801561039057600080fd5b50610399610b2e565b6040516103a6919061105d565b60405180910390f35b3480156103bb57600080fd5b506103c4610b34565b6040516103d19190610f82565b60405180910390f35b6103e2610b58565b005b3480156103f057600080fd5b5061040b60048036038101906104069190610dd3565b610c2d565b005b6002600b5461041c919061127a565b600d6000838152602001908152602001600020600301541161043d57600080fd5b600d600082815260200190815260200160002060020160149054906101000a900460ff161561046b57600080fd5b600d600082815260200190815260200160002060020160009054906101000a900473ffffffffffffffffffffffffffffffffffffffff1673ffffffffffffffffffffffffffffffffffffffff166108fc600d6000848152602001908152602001600020600101549081150290604051600060405180830381858888f193505050501580156104fd573d6000803e3d6000fd5b506001600d600083815260200190815260200160002060020160146101000a81548160ff02191690831515021790555050565b6003805461053d906112da565b80601f0160208091040260200160405190810160405280929190818152602001828054610569906112da565b80156105b65780601f1061058b576101008083540402835291602001916105b6565b820191906000526020600020905b81548152906001019060200180831161059957829003601f168201915b505050505081565b600a6020528060005260406000206000915054906101000a900460ff1681565b600781815481106105ee57600080fd5b906000526020600020016000915054906101000a900473ffffffffffffffffffffffffffffffffffffffff1681565b6000806000806000606080606060008060015447600c54600b5460008054906101000a900473ffffffffffffffffffffffffffffffffffffffff166002600460056006543084805461066e906112da565b80601f016020809104026020016040519081016040528092919081815260200182805461069a906112da565b80156106e75780601f106106bc576101008083540402835291602001916106e7565b820191906000526020600020905b8154815290600101906020018083116106ca57829003601f168201915b505050505094508380546106fa906112da565b80601f0160208091040260200160405190810160405280929190818152602001828054610726906112da565b80156107735780601f1061074857610100808354040283529160200191610773565b820191906000526020600020905b81548152906001019060200180831161075657829003601f168201915b50505050509350828054610786906112da565b80601f01602080910402602001604051908101604052809291908181526020018280546107b2906112da565b80156107ff5780601f106107d4576101008083540402835291602001916107ff565b820191906000526020600020905b8154815290600101906020018083116107e257829003601f168201915b50505050509250995099509950995099509950995099509950995090919293949596979899565b60085481565b60028054610839906112da565b80601f0160208091040260200160405190810160405280929190818152602001828054610865906112da565b80156108b25780601f10610887576101008083540402835291602001916108b2565b820191906000526020600020905b81548152906001019060200180831161089557829003601f168201915b505050505081565b600b5481565b6000600d6000600c60008154809291906108d99061130b565b9190505581526020019081526020016000209050838160000190816108fe91906114ff565b50828160010181905550818160020160006101000a81548173ffffffffffffffffffffffffffffffffffffffff021916908373ffffffffffffffffffffffffffffffffffffffff16021790555060008160020160146101000a81548160ff0219169083151502179055506000816003018190555050505050565b60048054610985906112da565b80601f01602080910402602001604051908101604052809291908181526020018280546109b1906112da565b80156109fe5780601f106109d3576101008083540402835291602001916109fe565b820191906000526020600020905b8154815290600101906020018083116109e157829003601f168201915b505050505081565b600c5481565b60098054610a19906112da565b80601f0160208091040260200160405190810160405280929190818152602001828054610a45906112da565b8015610a925780601f10610a6757610100808354040283529160200191610a92565b820191906000526020600020905b815481529060010190602001808311610a7557829003601f168201915b505050505081565b60015481565b60058054610aad906112da565b80601f0160208091040260200160405190810160405280929190818152602001828054610ad9906112da565b8015610b265780601f10610afb57610100808354040283529160200191610b26565b820191906000526020600020905b815481529060010190602001808311610b0957829003601f168201915b505050505081565b60065481565b60008054906101000a900473ffffffffffffffffffffffffffffffffffffffff1681565b6007339080600181540180825580915050600190039060005260206000200160009091909190916101000a81548173ffffffffffffffffffffffffffffffffffffffff021916908373ffffffffffffffffffffffffffffffffffffffff1602179055506001600a60003373ffffffffffffffffffffffffffffffffffffffff1673ffffffffffffffffffffffffffffffffffffffff16815260200190815260200160002060006101000a81548160ff021916908315150217905550600b6000815480929190610c269061130b565b9190505550565b600a60003373ffffffffffffffffffffffffffffffffffffffff1673ffffffffffffffffffffffffffffffffffffffff16815260200190815260200160002060009054906101000a900460ff16610c8357600080fd5b600d600082815260200190815260200160002060040160003373ffffffffffffffffffffffffffffffffffffffff1673ffffffffffffffffffffffffffffffffffffffff16815260200190815260200160002060009054906101000a900460ff1615610cee57600080fd5b6001600d600083815260200190815260200160002060040160003373ffffffffffffffffffffffffffffffffffffffff1673ffffffffffffffffffffffffffffffffffffffff16815260200190815260200160002060006101000a81548160ff021916908315150217905550600d60008281526020019081526020016000206003016000815480929190610d819061130b565b919050555050565b6000604051905090565b600080fd5b600080fd5b6000819050919050565b610db081610d9d565b8114610dbb57600080fd5b50565b600081359050610dcd81610da7565b92915050565b600060208284031215610de957610de8610d93565b5b6000610df784828501610dbe565b91505092915050565b600081519050919050565b600082825260208201905092915050565b60005b83811015610e3a578082015181840152602081019050610e1f565b60008484015250505050565b6000601f19601f8301169050919050565b6000610e6282610e00565b610e6c8185610e0b565b9350610e7c818560208601610e1c565b610e8581610e46565b840191505092915050565b60006020820190508181036000830152610eaa8184610e57565b905092915050565b600073ffffffffffffffffffffffffffffffffffffffff82169050919050565b6000610edd82610eb2565b9050919050565b610eed81610ed2565b8114610ef857600080fd5b50565b600081359050610f0a81610ee4565b92915050565b600060208284031215610f2657610f25610d93565b5b6000610f3484828501610efb565b91505092915050565b60008115159050919050565b610f5281610f3d565b82525050565b6000602082019050610f6d6000830184610f49565b92915050565b610f7c81610ed2565b82525050565b6000602082019050610f976000830184610f73565b92915050565b610fa681610d9d565b82525050565b600061014082019050610fc2600083018d610f9d565b610fcf602083018c610f9d565b610fdc604083018b610f9d565b610fe9606083018a610f9d565b610ff66080830189610f73565b81810360a08301526110088188610e57565b905081810360c083015261101c8187610e57565b905081810360e08301526110308186610e57565b9050611040610100830185610f9d565b61104e610120830184610f73565b9b9a5050505050505050505050565b60006020820190506110726000830184610f9d565b92915050565b600080fd5b600080fd5b7f4e487b7100000000000000000000000000000000000000000000000000000000600052604160045260246000fd5b6110ba82610e46565b810181811067ffffffffffffffff821117156110d9576110d8611082565b5b80604052505050565b60006110ec610d89565b90506110f882826110b1565b919050565b600067ffffffffffffffff82111561111857611117611082565b5b61112182610e46565b9050602081019050919050565b82818337600083830152505050565b600061115061114b846110fd565b6110e2565b90508281526020810184848401111561116c5761116b61107d565b5b61117784828561112e565b509392505050565b600082601f83011261119457611193611078565b5b81356111a484826020860161113d565b91505092915050565b6000806000606084860312156111c6576111c5610d93565b5b600084013567ffffffffffffffff8111156111e4576111e3610d98565b5b6111f08682870161117f565b935050602061120186828701610dbe565b925050604061121286828701610efb565b9150509250925092565b7f4e487b7100000000000000000000000000000000000000000000000000000000600052601260045260246000fd5b7f4e487b7100000000000000000000000000000000000000000000000000000000600052601160045260246000fd5b600061128582610d9d565b915061129083610d9d565b9250826112a05761129f61121c565b5b828204905092915050565b7f4e487b7100000000000000000000000000000000000000000000000000000000600052602260045260246000fd5b600060028204905060018216806112f257607f821691505b602082108103611305576113046112ab565b5b50919050565b600061131682610d9d565b91507fffffffffffffffffffffffffffffffffffffffffffffffffffffffffffffffff82036113485761134761124b565b5b600182019050919050565b60008190508160005260206000209050919050565b60006020601f8301049050919050565b600082821b905092915050565b6000600883026113b57fffffffffffffffffffffffffffffffffffffffffffffffffffffffffffffffff82611378565b6113bf8683611378565b95508019841693508086168417925050509392505050565b6000819050919050565b60006113fc6113f76113f284610d9d565b6113d7565b610d9d565b9050919050565b6000819050919050565b611416836113e1565b61142a61142282611403565b848454611385565b825550505050565b600090565b61143f611432565b61144a81848461140d565b505050565b5b8181101561146e57611463600082611437565b600181019050611450565b5050565b601f8211156114b35761148481611353565b61148d84611368565b8101602085101561149c578190505b6114b06114a885611368565b83018261144f565b50505b505050565b600082821c905092915050565b60006114d6600019846008026114b8565b1980831691505092915050565b60006114ef83836114c5565b9150826002028217905092915050565b61150882610e00565b67ffffffffffffffff81111561152157611520611082565b5b61152b82546112da565b611536828285611472565b600060209050601f8311600181146115695760008415611557578287015190505b61156185826114e3565b8655506115c9565b601f19841661157786611353565b60005b8281101561159f5784890151825560018201915060208501945060208101905061157a565b868310156115bc57848901516115b8601f8916826114c5565b8355505b6001600288020188555050505b50505050505056fea264697066735822122076cdeb7fa4e9c93191f1d5ed96ca1af80b585f032d50abb796dc25ef0fb8074d64736f6c63430008110033",
  "linkReferences": {},
  "deployedLinkReferences": {}
}