{
  "_format": "hh-sol-artifact-1",
  "contractName": "CampaignFactory",
  "sourceName": "contracts/Campaign.sol",
  "abi": [
    {
      "inputs": [
        {
          "internalType": "uint256",
          "name": "minimum",
          "type": "uint256"
        },
        {
          "internalType": "string",
          "name": "name",
          "type": "string"
        },
        {
          "internalType": "string",
          "name": "description",
          "type": "string"
        },
        {
          "internalType": "string",
          "name": "image",
          "type": "string"
        },
        {
          "internalType": "uint256",
          "name": "target",
          "type": "uint256"
        },
        {
          "internalType": "uint256",
          "name": "_datecreated",
          "type": "uint256"
        },
        {
          "internalType": "string",
          "name": "_Link",
          "type": "string"
        },
        {
          "internalType": "address",
          "name": "Sender",
          "type": "address"
        }
      ],
      "name": "createCampaign",
      "outputs": [],
      "stateMutability": "nonpayable",
      "type": "function"
    },
    {
      "inputs": [
        {
          "internalType": "uint256",
          "name": "",
          "type": "uint256"
        }
      ],
      "name": "deployedCampaigns",
      "outputs": [
        {
          "internalType": "address",
          "name": "",
          "type": "address"
        }
      ],
      "stateMutability": "view",
      "type": "function"
    },
    {
      "inputs": [],
      "name": "getDeployedCampaigns",
      "outputs": [
        {
          "internalType": "address[]",
          "name": "",
          "type": "address[]"
        }
      ],
      "stateMutability": "view",
      "type": "function"
    }
  ],
  "bytecode": "0x608060405234801561001057600080fd5b506127ab806100206000396000f3fe60806040523480156200001157600080fd5b5060043610620000465760003560e01c8063339d50a5146200004b57806334ceaa5c14620000815780634acb9d4f14620000a1575b600080fd5b620000696004803603810190620000639190620002a9565b620000c3565b60405162000078919062000320565b60405180910390f35b6200009f6004803603810190620000999190620004d0565b62000103565b005b620000ab620001bc565b604051620000ba9190620006e3565b60405180910390f35b60008181548110620000d457600080fd5b906000526020600020016000915054906101000a900473ffffffffffffffffffffffffffffffffffffffff1681565b600088828989898989896040516200011b906200024c565b6200012e989796959493929190620007a1565b604051809103906000f0801580156200014b573d6000803e3d6000fd5b5090506000819080600181540180825580915050600190039060005260206000200160009091909190916101000a81548173ffffffffffffffffffffffffffffffffffffffff021916908373ffffffffffffffffffffffffffffffffffffffff160217905550505050505050505050565b606060008054806020026020016040519081016040528092919081815260200182805480156200024257602002820191906000526020600020905b8160009054906101000a900473ffffffffffffffffffffffffffffffffffffffff1673ffffffffffffffffffffffffffffffffffffffff1681526020019060010190808311620001f7575b5050505050905090565b611f2a806200084c83390190565b6000604051905090565b600080fd5b600080fd5b6000819050919050565b62000283816200026e565b81146200028f57600080fd5b50565b600081359050620002a38162000278565b92915050565b600060208284031215620002c257620002c162000264565b5b6000620002d28482850162000292565b91505092915050565b600073ffffffffffffffffffffffffffffffffffffffff82169050919050565b60006200030882620002db565b9050919050565b6200031a81620002fb565b82525050565b60006020820190506200033760008301846200030f565b92915050565b600080fd5b600080fd5b6000601f19601f8301169050919050565b7f4e487b7100000000000000000000000000000000000000000000000000000000600052604160045260246000fd5b620003928262000347565b810181811067ffffffffffffffff82111715620003b457620003b362000358565b5b80604052505050565b6000620003c96200025a565b9050620003d7828262000387565b919050565b600067ffffffffffffffff821115620003fa57620003f962000358565b5b620004058262000347565b9050602081019050919050565b82818337600083830152505050565b6000620004386200043284620003dc565b620003bd565b90508281526020810184848401111562000457576200045662000342565b5b6200046484828562000412565b509392505050565b600082601f8301126200048457620004836200033d565b5b81356200049684826020860162000421565b91505092915050565b620004aa81620002fb565b8114620004b657600080fd5b50565b600081359050620004ca816200049f565b92915050565b600080600080600080600080610100898b031215620004f457620004f362000264565b5b6000620005048b828c0162000292565b985050602089013567ffffffffffffffff81111562000528576200052762000269565b5b620005368b828c016200046c565b975050604089013567ffffffffffffffff8111156200055a576200055962000269565b5b620005688b828c016200046c565b965050606089013567ffffffffffffffff8111156200058c576200058b62000269565b5b6200059a8b828c016200046c565b9550506080620005ad8b828c0162000292565b94505060a0620005c08b828c0162000292565b93505060c089013567ffffffffffffffff811115620005e457620005e362000269565b5b620005f28b828c016200046c565b92505060e0620006058b828c01620004b9565b9150509295985092959890939650565b600081519050919050565b600082825260208201905092915050565b6000819050602082019050919050565b6200064c81620002fb565b82525050565b600062000660838362000641565b60208301905092915050565b6000602082019050919050565b6000620006868262000615565b62000692818562000620565b93506200069f8362000631565b8060005b83811015620006d6578151620006ba888262000652565b9750620006c7836200066c565b925050600181019050620006a3565b5085935050505092915050565b60006020820190508181036000830152620006ff818462000679565b905092915050565b62000712816200026e565b82525050565b600081519050919050565b600082825260208201905092915050565b60005b838110156200075457808201518184015260208101905062000737565b60008484015250505050565b60006200076d8262000718565b62000779818562000723565b93506200078b81856020860162000734565b620007968162000347565b840191505092915050565b600061010082019050620007b9600083018b62000707565b620007c8602083018a6200030f565b8181036040830152620007dc818962000760565b90508181036060830152620007f2818862000760565b9050818103608083015262000808818762000760565b90506200081960a083018662000707565b6200082860c083018562000707565b81810360e08301526200083c818462000760565b9050999850505050505050505056fe60806040523480156200001157600080fd5b5060405162001f2a38038062001f2a833981810160405281019062000037919062000315565b866000806101000a81548173ffffffffffffffffffffffffffffffffffffffff021916908373ffffffffffffffffffffffffffffffffffffffff1602179055508760018190555085600290816200008f91906200069b565b508460049081620000a191906200069b565b508360059081620000b391906200069b565b5082600681905550816008819055508060099081620000d391906200069b565b50505050505050505062000782565b6000604051905090565b600080fd5b600080fd5b6000819050919050565b6200010b81620000f6565b81146200011757600080fd5b50565b6000815190506200012b8162000100565b92915050565b600073ffffffffffffffffffffffffffffffffffffffff82169050919050565b60006200015e8262000131565b9050919050565b620001708162000151565b81146200017c57600080fd5b50565b600081519050620001908162000165565b92915050565b600080fd5b600080fd5b6000601f19601f8301169050919050565b7f4e487b7100000000000000000000000000000000000000000000000000000000600052604160045260246000fd5b620001eb82620001a0565b810181811067ffffffffffffffff821117156200020d576200020c620001b1565b5b80604052505050565b600062000222620000e2565b9050620002308282620001e0565b919050565b600067ffffffffffffffff821115620002535762000252620001b1565b5b6200025e82620001a0565b9050602081019050919050565b60005b838110156200028b5780820151818401526020810190506200026e565b60008484015250505050565b6000620002ae620002a88462000235565b62000216565b905082815260208101848484011115620002cd57620002cc6200019b565b5b620002da8482856200026b565b509392505050565b600082601f830112620002fa57620002f962000196565b5b81516200030c84826020860162000297565b91505092915050565b600080600080600080600080610100898b031215620003395762000338620000ec565b5b6000620003498b828c016200011a565b98505060206200035c8b828c016200017f565b975050604089015167ffffffffffffffff81111562000380576200037f620000f1565b5b6200038e8b828c01620002e2565b965050606089015167ffffffffffffffff811115620003b257620003b1620000f1565b5b620003c08b828c01620002e2565b955050608089015167ffffffffffffffff811115620003e457620003e3620000f1565b5b620003f28b828c01620002e2565b94505060a0620004058b828c016200011a565b93505060c0620004188b828c016200011a565b92505060e089015167ffffffffffffffff8111156200043c576200043b620000f1565b5b6200044a8b828c01620002e2565b9150509295985092959890939650565b600081519050919050565b7f4e487b7100000000000000000000000000000000000000000000000000000000600052602260045260246000fd5b60006002820490506001821680620004ad57607f821691505b602082108103620004c357620004c262000465565b5b50919050565b60008190508160005260206000209050919050565b60006020601f8301049050919050565b600082821b905092915050565b6000600883026200052d7fffffffffffffffffffffffffffffffffffffffffffffffffffffffffffffffff82620004ee565b620005398683620004ee565b95508019841693508086168417925050509392505050565b6000819050919050565b60006200057c620005766200057084620000f6565b62000551565b620000f6565b9050919050565b6000819050919050565b62000598836200055b565b620005b0620005a78262000583565b848454620004fb565b825550505050565b600090565b620005c7620005b8565b620005d48184846200058d565b505050565b5b81811015620005fc57620005f0600082620005bd565b600181019050620005da565b5050565b601f8211156200064b576200061581620004c9565b6200062084620004de565b8101602085101562000630578190505b620006486200063f85620004de565b830182620005d9565b50505b505050565b600082821c905092915050565b6000620006706000198460080262000650565b1980831691505092915050565b60006200068b83836200065d565b9150826002028217905092915050565b620006a6826200045a565b67ffffffffffffffff811115620006c257620006c1620001b1565b5b620006ce825462000494565b620006db82828562000600565b600060209050601f831160018114620007135760008415620006fe578287015190505b6200070a85826200067d565b8655506200077a565b601f1984166200072386620004c9565b60005b828110156200074d5784890151825560018201915060208501945060208101905062000726565b868310156200076d578489015162000769601f8916826200065d565b8355505b6001600288020188555050505b505050505050565b61179880620007926000396000f3fe6080604052600436106101145760003560e01c80638a9cfd55116100a0578063aba8315011610064578063aba83150146103a5578063b2a87fc3146103d0578063b4a99a4e146103fb578063d7bb99ba14610426578063d7d1bbdb1461043057610114565b80638a9cfd55146102d057806397654a8c146102f95780639fb42b1f14610324578063a128dfa31461034f578063a7f337151461037a57610114565b80634051ddac116100e75780634051ddac146101da57806341f72d381461020e5780637e7cd1b31461023957806381d12c581461026457806382fde093146102a557610114565b806303441006146101195780630873a2e6146101355780630a144391146101605780631fbed5791461019d575b600080fd5b610133600480360381019061012e9190610f0a565b610459565b005b34801561014157600080fd5b5061014a61057c565b6040516101579190610fc7565b60405180910390f35b34801561016c57600080fd5b5061018760048036038101906101829190611047565b61060a565b604051610194919061108f565b60405180910390f35b3480156101a957600080fd5b506101c460048036038101906101bf9190610f0a565b61062a565b6040516101d191906110b9565b60405180910390f35b3480156101e657600080fd5b506101ef610669565b6040516102059a999897969594939291906110e3565b60405180910390f35b34801561021a57600080fd5b50610223610872565b6040516102309190611194565b60405180910390f35b34801561024557600080fd5b5061024e610878565b60405161025b9190610fc7565b60405180910390f35b34801561027057600080fd5b5061028b60048036038101906102869190610f0a565b610906565b60405161029c9594939291906111af565b60405180910390f35b3480156102b157600080fd5b506102ba6109f1565b6040516102c79190611194565b60405180910390f35b3480156102dc57600080fd5b506102f760048036038101906102f2919061133e565b6109f7565b005b34801561030557600080fd5b5061030e610aaf565b60405161031b9190610fc7565b60405180910390f35b34801561033057600080fd5b50610339610b3d565b6040516103469190611194565b60405180910390f35b34801561035b57600080fd5b50610364610b43565b6040516103719190610fc7565b60405180910390f35b34801561038657600080fd5b5061038f610bd1565b60405161039c9190611194565b60405180910390f35b3480156103b157600080fd5b506103ba610bd7565b6040516103c79190610fc7565b60405180910390f35b3480156103dc57600080fd5b506103e5610c65565b6040516103f29190611194565b60405180910390f35b34801561040757600080fd5b50610410610c6b565b60405161041d91906110b9565b60405180910390f35b61042e610c8f565b005b34801561043c57600080fd5b5061045760048036038101906104529190610f0a565b610d64565b005b6002600b54610468919061140b565b600d6000838152602001908152602001600020600301541161048957600080fd5b600d600082815260200190815260200160002060020160149054906101000a900460ff16156104b757600080fd5b600d600082815260200190815260200160002060020160009054906101000a900473ffffffffffffffffffffffffffffffffffffffff1673ffffffffffffffffffffffffffffffffffffffff166108fc600d6000848152602001908152602001600020600101549081150290604051600060405180830381858888f19350505050158015610549573d6000803e3d6000fd5b506001600d600083815260200190815260200160002060020160146101000a81548160ff02191690831515021790555050565b600380546105899061146b565b80601f01602080910402602001604051908101604052809291908181526020018280546105b59061146b565b80156106025780601f106105d757610100808354040283529160200191610602565b820191906000526020600020905b8154815290600101906020018083116105e557829003601f168201915b505050505081565b600a6020528060005260406000206000915054906101000a900460ff1681565b6007818154811061063a57600080fd5b906000526020600020016000915054906101000a900473ffffffffffffffffffffffffffffffffffffffff1681565b6000806000806000606080606060008060015447600c54600b5460008054906101000a900473ffffffffffffffffffffffffffffffffffffffff16600260046005600654308480546106ba9061146b565b80601f01602080910402602001604051908101604052809291908181526020018280546106e69061146b565b80156107335780601f1061070857610100808354040283529160200191610733565b820191906000526020600020905b81548152906001019060200180831161071657829003601f168201915b505050505094508380546107469061146b565b80601f01602080910402602001604051908101604052809291908181526020018280546107729061146b565b80156107bf5780601f10610794576101008083540402835291602001916107bf565b820191906000526020600020905b8154815290600101906020018083116107a257829003601f168201915b505050505093508280546107d29061146b565b80601f01602080910402602001604051908101604052809291908181526020018280546107fe9061146b565b801561084b5780601f106108205761010080835404028352916020019161084b565b820191906000526020600020905b81548152906001019060200180831161082e57829003601f168201915b50505050509250995099509950995099509950995099509950995090919293949596979899565b60085481565b600280546108859061146b565b80601f01602080910402602001604051908101604052809291908181526020018280546108b19061146b565b80156108fe5780601f106108d3576101008083540402835291602001916108fe565b820191906000526020600020905b8154815290600101906020018083116108e157829003601f168201915b505050505081565b600d6020528060005260406000206000915090508060000180546109299061146b565b80601f01602080910402602001604051908101604052809291908181526020018280546109559061146b565b80156109a25780601f10610977576101008083540402835291602001916109a2565b820191906000526020600020905b81548152906001019060200180831161098557829003601f168201915b5050505050908060010154908060020160009054906101000a900473ffffffffffffffffffffffffffffffffffffffff16908060020160149054906101000a900460ff16908060030154905085565b600b5481565b6000600d6000600c6000815480929190610a109061149c565b919050558152602001908152602001600020905083816000019081610a359190611690565b50828160010181905550818160020160006101000a81548173ffffffffffffffffffffffffffffffffffffffff021916908373ffffffffffffffffffffffffffffffffffffffff16021790555060008160020160146101000a81548160ff0219169083151502179055506000816003018190555050505050565b60048054610abc9061146b565b80601f0160208091040260200160405190810160405280929190818152602001828054610ae89061146b565b8015610b355780601f10610b0a57610100808354040283529160200191610b35565b820191906000526020600020905b815481529060010190602001808311610b1857829003601f168201915b505050505081565b600c5481565b60098054610b509061146b565b80601f0160208091040260200160405190810160405280929190818152602001828054610b7c9061146b565b8015610bc95780601f10610b9e57610100808354040283529160200191610bc9565b820191906000526020600020905b815481529060010190602001808311610bac57829003601f168201915b505050505081565b60015481565b60058054610be49061146b565b80601f0160208091040260200160405190810160405280929190818152602001828054610c109061146b565b8015610c5d5780601f10610c3257610100808354040283529160200191610c5d565b820191906000526020600020905b815481529060010190602001808311610c4057829003601f168201915b505050505081565b60065481565b60008054906101000a900473ffffffffffffffffffffffffffffffffffffffff1681565b6007339080600181540180825580915050600190039060005260206000200160009091909190916101000a81548173ffffffffffffffffffffffffffffffffffffffff021916908373ffffffffffffffffffffffffffffffffffffffff1602179055506001600a60003373ffffffffffffffffffffffffffffffffffffffff1673ffffffffffffffffffffffffffffffffffffffff16815260200190815260200160002060006101000a81548160ff021916908315150217905550600b6000815480929190610d5d9061149c565b9190505550565b600a60003373ffffffffffffffffffffffffffffffffffffffff1673ffffffffffffffffffffffffffffffffffffffff16815260200190815260200160002060009054906101000a900460ff16610dba57600080fd5b600d600082815260200190815260200160002060040160003373ffffffffffffffffffffffffffffffffffffffff1673ffffffffffffffffffffffffffffffffffffffff16815260200190815260200160002060009054906101000a900460ff1615610e2557600080fd5b6001600d600083815260200190815260200160002060040160003373ffffffffffffffffffffffffffffffffffffffff1673ffffffffffffffffffffffffffffffffffffffff16815260200190815260200160002060006101000a81548160ff021916908315150217905550600d60008281526020019081526020016000206003016000815480929190610eb89061149c565b919050555050565b6000604051905090565b600080fd5b600080fd5b6000819050919050565b610ee781610ed4565b8114610ef257600080fd5b50565b600081359050610f0481610ede565b92915050565b600060208284031215610f2057610f1f610eca565b5b6000610f2e84828501610ef5565b91505092915050565b600081519050919050565b600082825260208201905092915050565b60005b83811015610f71578082015181840152602081019050610f56565b60008484015250505050565b6000601f19601f8301169050919050565b6000610f9982610f37565b610fa38185610f42565b9350610fb3818560208601610f53565b610fbc81610f7d565b840191505092915050565b60006020820190508181036000830152610fe18184610f8e565b905092915050565b600073ffffffffffffffffffffffffffffffffffffffff82169050919050565b600061101482610fe9565b9050919050565b61102481611009565b811461102f57600080fd5b50565b6000813590506110418161101b565b92915050565b60006020828403121561105d5761105c610eca565b5b600061106b84828501611032565b91505092915050565b60008115159050919050565b61108981611074565b82525050565b60006020820190506110a46000830184611080565b92915050565b6110b381611009565b82525050565b60006020820190506110ce60008301846110aa565b92915050565b6110dd81610ed4565b82525050565b6000610140820190506110f9600083018d6110d4565b611106602083018c6110d4565b611113604083018b6110d4565b611120606083018a6110d4565b61112d60808301896110aa565b81810360a083015261113f8188610f8e565b905081810360c08301526111538187610f8e565b905081810360e08301526111678186610f8e565b90506111776101008301856110d4565b6111856101208301846110aa565b9b9a5050505050505050505050565b60006020820190506111a960008301846110d4565b92915050565b600060a08201905081810360008301526111c98188610f8e565b90506111d860208301876110d4565b6111e560408301866110aa565b6111f26060830185611080565b6111ff60808301846110d4565b9695505050505050565b600080fd5b600080fd5b7f4e487b7100000000000000000000000000000000000000000000000000000000600052604160045260246000fd5b61124b82610f7d565b810181811067ffffffffffffffff8211171561126a57611269611213565b5b80604052505050565b600061127d610ec0565b90506112898282611242565b919050565b600067ffffffffffffffff8211156112a9576112a8611213565b5b6112b282610f7d565b9050602081019050919050565b82818337600083830152505050565b60006112e16112dc8461128e565b611273565b9050828152602081018484840111156112fd576112fc61120e565b5b6113088482856112bf565b509392505050565b600082601f83011261132557611324611209565b5b81356113358482602086016112ce565b91505092915050565b60008060006060848603121561135757611356610eca565b5b600084013567ffffffffffffffff81111561137557611374610ecf565b5b61138186828701611310565b935050602061139286828701610ef5565b92505060406113a386828701611032565b9150509250925092565b7f4e487b7100000000000000000000000000000000000000000000000000000000600052601260045260246000fd5b7f4e487b7100000000000000000000000000000000000000000000000000000000600052601160045260246000fd5b600061141682610ed4565b915061142183610ed4565b925082611431576114306113ad565b5b828204905092915050565b7f4e487b7100000000000000000000000000000000000000000000000000000000600052602260045260246000fd5b6000600282049050600182168061148357607f821691505b6020821081036114965761149561143c565b5b50919050565b60006114a782610ed4565b91507fffffffffffffffffffffffffffffffffffffffffffffffffffffffffffffffff82036114d9576114d86113dc565b5b600182019050919050565b60008190508160005260206000209050919050565b60006020601f8301049050919050565b600082821b905092915050565b6000600883026115467fffffffffffffffffffffffffffffffffffffffffffffffffffffffffffffffff82611509565b6115508683611509565b95508019841693508086168417925050509392505050565b6000819050919050565b600061158d61158861158384610ed4565b611568565b610ed4565b9050919050565b6000819050919050565b6115a783611572565b6115bb6115b382611594565b848454611516565b825550505050565b600090565b6115d06115c3565b6115db81848461159e565b505050565b5b818110156115ff576115f46000826115c8565b6001810190506115e1565b5050565b601f82111561164457611615816114e4565b61161e846114f9565b8101602085101561162d578190505b611641611639856114f9565b8301826115e0565b50505b505050565b600082821c905092915050565b600061166760001984600802611649565b1980831691505092915050565b60006116808383611656565b9150826002028217905092915050565b61169982610f37565b67ffffffffffffffff8111156116b2576116b1611213565b5b6116bc825461146b565b6116c7828285611603565b600060209050601f8311600181146116fa57600084156116e8578287015190505b6116f28582611674565b86555061175a565b601f198416611708866114e4565b60005b828110156117305784890151825560018201915060208501945060208101905061170b565b8683101561174d5784890151611749601f891682611656565b8355505b6001600288020188555050505b50505050505056fea2646970667358221220bbd693ebe08104ff1b0be3aa5f04599922ed843fd1a68674ea7e4161eafbc9f764736f6c63430008110033a2646970667358221220c6107ed89f891025e2f5d60d75a9efb359db89438e973a5592a662fcd200095264736f6c63430008110033",
  "linkReferences": {},
  "deployedLinkReferences": {}
}