{
  "_format": "hh-sol-artifact-1",
  "contractName": "Campaign",
  "sourceName": "contracts/Campaign.sol",
  "abi": [
    {
      "inputs": [
        {
          "internalType": "uint256",
          "name": "minimun",
          "type": "uint256"
        },
        {
          "internalType": "address",
          "name": "creator",
          "type": "address"
        },
        {
          "internalType": "string",
          "name": "name",
          "type": "string"
        },
        {
          "internalType": "string",
          "name": "description",
          "type": "string"
        },
        {
          "internalType": "string",
          "name": "image",
          "type": "string"
        },
        {
          "internalType": "uint256",
          "name": "target",
          "type": "uint256"
        },
        {
          "internalType": "uint256",
          "name": "_datecreated",
          "type": "uint256"
        },
        {
          "internalType": "string",
          "name": "_Link",
          "type": "string"
        }
      ],
      "stateMutability": "nonpayable",
      "type": "constructor"
    },
    {
      "inputs": [],
      "name": "CampaignDescription",
      "outputs": [
        {
          "internalType": "string",
          "name": "",
          "type": "string"
        }
      ],
      "stateMutability": "view",
      "type": "function"
    },
    {
      "inputs": [],
      "name": "CampaignName",
      "outputs": [
        {
          "internalType": "string",
          "name": "",
          "type": "string"
        }
      ],
      "stateMutability": "view",
      "type": "function"
    },
    {
      "inputs": [],
      "name": "DateCreated",
      "outputs": [
        {
          "internalType": "uint256",
          "name": "",
          "type": "uint256"
        }
      ],
      "stateMutability": "view",
      "type": "function"
    },
    {
      "inputs": [],
      "name": "Owner",
      "outputs": [
        {
          "internalType": "address",
          "name": "",
          "type": "address"
        }
      ],
      "stateMutability": "view",
      "type": "function"
    },
    {
      "inputs": [],
      "name": "SubTitle",
      "outputs": [
        {
          "internalType": "string",
          "name": "",
          "type": "string"
        }
      ],
      "stateMutability": "view",
      "type": "function"
    },
    {
      "inputs": [],
      "name": "WebLink",
      "outputs": [
        {
          "internalType": "string",
          "name": "",
          "type": "string"
        }
      ],
      "stateMutability": "view",
      "type": "function"
    },
    {
      "inputs": [
        {
          "internalType": "uint256",
          "name": "index",
          "type": "uint256"
        }
      ],
      "name": "approveRequest",
      "outputs": [],
      "stateMutability": "nonpayable",
      "type": "function"
    },
    {
      "inputs": [
        {
          "internalType": "address",
          "name": "",
          "type": "address"
        }
      ],
      "name": "approvers",
      "outputs": [
        {
          "internalType": "bool",
          "name": "",
          "type": "bool"
        }
      ],
      "stateMutability": "view",
      "type": "function"
    },
    {
      "inputs": [],
      "name": "approversCount",
      "outputs": [
        {
          "internalType": "uint256",
          "name": "",
          "type": "uint256"
        }
      ],
      "stateMutability": "view",
      "type": "function"
    },
    {
      "inputs": [],
      "name": "contribute",
      "outputs": [],
      "stateMutability": "payable",
      "type": "function"
    },
    {
      "inputs": [
        {
          "internalType": "uint256",
          "name": "",
          "type": "uint256"
        }
      ],
      "name": "contributers",
      "outputs": [
        {
          "internalType": "address",
          "name": "",
          "type": "address"
        }
      ],
      "stateMutability": "view",
      "type": "function"
    },
    {
      "inputs": [
        {
          "internalType": "string",
          "name": "_description",
          "type": "string"
        },
        {
          "internalType": "uint256",
          "name": "_value",
          "type": "uint256"
        },
        {
          "internalType": "address",
          "name": "_recipient",
          "type": "address"
        }
      ],
      "name": "createRequest",
      "outputs": [],
      "stateMutability": "nonpayable",
      "type": "function"
    },
    {
      "inputs": [
        {
          "internalType": "uint256",
          "name": "index",
          "type": "uint256"
        }
      ],
      "name": "finalizeRequest",
      "outputs": [],
      "stateMutability": "payable",
      "type": "function"
    },
    {
      "inputs": [],
      "name": "getSummary",
      "outputs": [
        {
          "internalType": "uint256",
          "name": "",
          "type": "uint256"
        },
        {
          "internalType": "uint256",
          "name": "",
          "type": "uint256"
        },
        {
          "internalType": "uint256",
          "name": "",
          "type": "uint256"
        },
        {
          "internalType": "uint256",
          "name": "",
          "type": "uint256"
        },
        {
          "internalType": "address",
          "name": "",
          "type": "address"
        },
        {
          "internalType": "string",
          "name": "",
          "type": "string"
        },
        {
          "internalType": "string",
          "name": "",
          "type": "string"
        },
        {
          "internalType": "string",
          "name": "",
          "type": "string"
        },
        {
          "internalType": "uint256",
          "name": "",
          "type": "uint256"
        },
        {
          "internalType": "address",
          "name": "",
          "type": "address"
        }
      ],
      "stateMutability": "view",
      "type": "function"
    },
    {
      "inputs": [],
      "name": "imageUrl",
      "outputs": [
        {
          "internalType": "string",
          "name": "",
          "type": "string"
        }
      ],
      "stateMutability": "view",
      "type": "function"
    },
    {
      "inputs": [],
      "name": "minimunContribution",
      "outputs": [
        {
          "internalType": "uint256",
          "name": "",
          "type": "uint256"
        }
      ],
      "stateMutability": "view",
      "type": "function"
    },
    {
      "inputs": [],
      "name": "numRequests",
      "outputs": [
        {
          "internalType": "uint256",
          "name": "",
          "type": "uint256"
        }
      ],
      "stateMutability": "view",
      "type": "function"
    },
    {
      "inputs": [],
      "name": "targetToAchieve",
      "outputs": [
        {
          "internalType": "uint256",
          "name": "",
          "type": "uint256"
        }
      ],
      "stateMutability": "view",
      "type": "function"
    }
  ],
  "bytecode": "0x60806040523480156200001157600080fd5b5060405162001e0a38038062001e0a833981810160405281019062000037919062000315565b866000806101000a81548173ffffffffffffffffffffffffffffffffffffffff021916908373ffffffffffffffffffffffffffffffffffffffff1602179055508760018190555085600290816200008f91906200069b565b508460049081620000a191906200069b565b508360059081620000b391906200069b565b5082600681905550816008819055508060099081620000d391906200069b565b50505050505050505062000782565b6000604051905090565b600080fd5b600080fd5b6000819050919050565b6200010b81620000f6565b81146200011757600080fd5b50565b6000815190506200012b8162000100565b92915050565b600073ffffffffffffffffffffffffffffffffffffffff82169050919050565b60006200015e8262000131565b9050919050565b620001708162000151565b81146200017c57600080fd5b50565b600081519050620001908162000165565b92915050565b600080fd5b600080fd5b6000601f19601f8301169050919050565b7f4e487b7100000000000000000000000000000000000000000000000000000000600052604160045260246000fd5b620001eb82620001a0565b810181811067ffffffffffffffff821117156200020d576200020c620001b1565b5b80604052505050565b600062000222620000e2565b9050620002308282620001e0565b919050565b600067ffffffffffffffff821115620002535762000252620001b1565b5b6200025e82620001a0565b9050602081019050919050565b60005b838110156200028b5780820151818401526020810190506200026e565b60008484015250505050565b6000620002ae620002a88462000235565b62000216565b905082815260208101848484011115620002cd57620002cc6200019b565b5b620002da8482856200026b565b509392505050565b600082601f830112620002fa57620002f962000196565b5b81516200030c84826020860162000297565b91505092915050565b600080600080600080600080610100898b031215620003395762000338620000ec565b5b6000620003498b828c016200011a565b98505060206200035c8b828c016200017f565b975050604089015167ffffffffffffffff81111562000380576200037f620000f1565b5b6200038e8b828c01620002e2565b965050606089015167ffffffffffffffff811115620003b257620003b1620000f1565b5b620003c08b828c01620002e2565b955050608089015167ffffffffffffffff811115620003e457620003e3620000f1565b5b620003f28b828c01620002e2565b94505060a0620004058b828c016200011a565b93505060c0620004188b828c016200011a565b92505060e089015167ffffffffffffffff8111156200043c576200043b620000f1565b5b6200044a8b828c01620002e2565b9150509295985092959890939650565b600081519050919050565b7f4e487b7100000000000000000000000000000000000000000000000000000000600052602260045260246000fd5b60006002820490506001821680620004ad57607f821691505b602082108103620004c357620004c262000465565b5b50919050565b60008190508160005260206000209050919050565b60006020601f8301049050919050565b600082821b905092915050565b6000600883026200052d7fffffffffffffffffffffffffffffffffffffffffffffffffffffffffffffffff82620004ee565b620005398683620004ee565b95508019841693508086168417925050509392505050565b6000819050919050565b60006200057c620005766200057084620000f6565b62000551565b620000f6565b9050919050565b6000819050919050565b62000598836200055b565b620005b0620005a78262000583565b848454620004fb565b825550505050565b600090565b620005c7620005b8565b620005d48184846200058d565b505050565b5b81811015620005fc57620005f0600082620005bd565b600181019050620005da565b5050565b601f8211156200064b576200061581620004c9565b6200062084620004de565b8101602085101562000630578190505b620006486200063f85620004de565b830182620005d9565b50505b505050565b600082821c905092915050565b6000620006706000198460080262000650565b1980831691505092915050565b60006200068b83836200065d565b9150826002028217905092915050565b620006a6826200045a565b67ffffffffffffffff811115620006c257620006c1620001b1565b5b620006ce825462000494565b620006db82828562000600565b600060209050601f831160018114620007135760008415620006fe578287015190505b6200070a85826200067d565b8655506200077a565b601f1984166200072386620004c9565b60005b828110156200074d5784890151825560018201915060208501945060208101905062000726565b868310156200076d578489015162000769601f8916826200065d565b8355505b6001600288020188555050505b505050505050565b61167880620007926000396000f3fe6080604052600436106101095760003560e01c806397654a8c11610095578063aba8315011610064578063aba8315014610359578063b2a87fc314610384578063b4a99a4e146103af578063d7bb99ba146103da578063d7d1bbdb146103e457610109565b806397654a8c146102ad5780639fb42b1f146102d8578063a128dfa314610303578063a7f337151461032e57610109565b80634051ddac116100dc5780634051ddac146101cf57806341f72d38146102035780637e7cd1b31461022e57806382fde093146102595780638a9cfd551461028457610109565b8063034410061461010e5780630873a2e61461012a5780630a144391146101555780631fbed57914610192575b600080fd5b61012860048036038101906101239190610e02565b61040d565b005b34801561013657600080fd5b5061013f610530565b60405161014c9190610ebf565b60405180910390f35b34801561016157600080fd5b5061017c60048036038101906101779190610f3f565b6105be565b6040516101899190610f87565b60405180910390f35b34801561019e57600080fd5b506101b960048036038101906101b49190610e02565b6105de565b6040516101c69190610fb1565b60405180910390f35b3480156101db57600080fd5b506101e461061d565b6040516101fa9a99989796959493929190610fdb565b60405180910390f35b34801561020f57600080fd5b50610218610826565b604051610225919061108c565b60405180910390f35b34801561023a57600080fd5b5061024361082c565b6040516102509190610ebf565b60405180910390f35b34801561026557600080fd5b5061026e6108ba565b60405161027b919061108c565b60405180910390f35b34801561029057600080fd5b506102ab60048036038101906102a691906111dc565b6108c0565b005b3480156102b957600080fd5b506102c2610978565b6040516102cf9190610ebf565b60405180910390f35b3480156102e457600080fd5b506102ed610a06565b6040516102fa919061108c565b60405180910390f35b34801561030f57600080fd5b50610318610a0c565b6040516103259190610ebf565b60405180910390f35b34801561033a57600080fd5b50610343610a9a565b604051610350919061108c565b60405180910390f35b34801561036557600080fd5b5061036e610aa0565b60405161037b9190610ebf565b60405180910390f35b34801561039057600080fd5b50610399610b2e565b6040516103a6919061108c565b60405180910390f35b3480156103bb57600080fd5b506103c4610b34565b6040516103d19190610fb1565b60405180910390f35b6103e2610b58565b005b3480156103f057600080fd5b5061040b60048036038101906104069190610e02565b610c5c565b005b6002600b5461041c91906112a9565b600d6000838152602001908152602001600020600301541161043d57600080fd5b600d600082815260200190815260200160002060020160149054906101000a900460ff161561046b57600080fd5b600d600082815260200190815260200160002060020160009054906101000a900473ffffffffffffffffffffffffffffffffffffffff1673ffffffffffffffffffffffffffffffffffffffff166108fc600d6000848152602001908152602001600020600101549081150290604051600060405180830381858888f193505050501580156104fd573d6000803e3d6000fd5b506001600d600083815260200190815260200160002060020160146101000a81548160ff02191690831515021790555050565b6003805461053d90611309565b80601f016020809104026020016040519081016040528092919081815260200182805461056990611309565b80156105b65780601f1061058b576101008083540402835291602001916105b6565b820191906000526020600020905b81548152906001019060200180831161059957829003601f168201915b505050505081565b600a6020528060005260406000206000915054906101000a900460ff1681565b600781815481106105ee57600080fd5b906000526020600020016000915054906101000a900473ffffffffffffffffffffffffffffffffffffffff1681565b6000806000806000606080606060008060015447600c54600b5460008054906101000a900473ffffffffffffffffffffffffffffffffffffffff166002600460056006543084805461066e90611309565b80601f016020809104026020016040519081016040528092919081815260200182805461069a90611309565b80156106e75780601f106106bc576101008083540402835291602001916106e7565b820191906000526020600020905b8154815290600101906020018083116106ca57829003601f168201915b505050505094508380546106fa90611309565b80601f016020809104026020016040519081016040528092919081815260200182805461072690611309565b80156107735780601f1061074857610100808354040283529160200191610773565b820191906000526020600020905b81548152906001019060200180831161075657829003601f168201915b5050505050935082805461078690611309565b80601f01602080910402602001604051908101604052809291908181526020018280546107b290611309565b80156107ff5780601f106107d4576101008083540402835291602001916107ff565b820191906000526020600020905b8154815290600101906020018083116107e257829003601f168201915b50505050509250995099509950995099509950995099509950995090919293949596979899565b60085481565b6002805461083990611309565b80601f016020809104026020016040519081016040528092919081815260200182805461086590611309565b80156108b25780601f10610887576101008083540402835291602001916108b2565b820191906000526020600020905b81548152906001019060200180831161089557829003601f168201915b505050505081565b600b5481565b6000600d6000600c60008154809291906108d99061133a565b9190505581526020019081526020016000209050838160000190816108fe919061152e565b50828160010181905550818160020160006101000a81548173ffffffffffffffffffffffffffffffffffffffff021916908373ffffffffffffffffffffffffffffffffffffffff16021790555060008160020160146101000a81548160ff0219169083151502179055506000816003018190555050505050565b6004805461098590611309565b80601f01602080910402602001604051908101604052809291908181526020018280546109b190611309565b80156109fe5780601f106109d3576101008083540402835291602001916109fe565b820191906000526020600020905b8154815290600101906020018083116109e157829003601f168201915b505050505081565b600c5481565b60098054610a1990611309565b80601f0160208091040260200160405190810160405280929190818152602001828054610a4590611309565b8015610a925780601f10610a6757610100808354040283529160200191610a92565b820191906000526020600020905b815481529060010190602001808311610a7557829003601f168201915b505050505081565b60015481565b60058054610aad90611309565b80601f0160208091040260200160405190810160405280929190818152602001828054610ad990611309565b8015610b265780601f10610afb57610100808354040283529160200191610b26565b820191906000526020600020905b815481529060010190602001808311610b0957829003601f168201915b505050505081565b60065481565b60008054906101000a900473ffffffffffffffffffffffffffffffffffffffff1681565b6008544210610b6657600080fd5b670de0b6b3a7640000600154610b7c9190611600565b3411610b8757600080fd5b6007339080600181540180825580915050600190039060005260206000200160009091909190916101000a81548173ffffffffffffffffffffffffffffffffffffffff021916908373ffffffffffffffffffffffffffffffffffffffff1602179055506001600a60003373ffffffffffffffffffffffffffffffffffffffff1673ffffffffffffffffffffffffffffffffffffffff16815260200190815260200160002060006101000a81548160ff021916908315150217905550600b6000815480929190610c559061133a565b9190505550565b600a60003373ffffffffffffffffffffffffffffffffffffffff1673ffffffffffffffffffffffffffffffffffffffff16815260200190815260200160002060009054906101000a900460ff16610cb257600080fd5b600d600082815260200190815260200160002060040160003373ffffffffffffffffffffffffffffffffffffffff1673ffffffffffffffffffffffffffffffffffffffff16815260200190815260200160002060009054906101000a900460ff1615610d1d57600080fd5b6001600d600083815260200190815260200160002060040160003373ffffffffffffffffffffffffffffffffffffffff1673ffffffffffffffffffffffffffffffffffffffff16815260200190815260200160002060006101000a81548160ff021916908315150217905550600d60008281526020019081526020016000206003016000815480929190610db09061133a565b919050555050565b6000604051905090565b600080fd5b600080fd5b6000819050919050565b610ddf81610dcc565b8114610dea57600080fd5b50565b600081359050610dfc81610dd6565b92915050565b600060208284031215610e1857610e17610dc2565b5b6000610e2684828501610ded565b91505092915050565b600081519050919050565b600082825260208201905092915050565b60005b83811015610e69578082015181840152602081019050610e4e565b60008484015250505050565b6000601f19601f8301169050919050565b6000610e9182610e2f565b610e9b8185610e3a565b9350610eab818560208601610e4b565b610eb481610e75565b840191505092915050565b60006020820190508181036000830152610ed98184610e86565b905092915050565b600073ffffffffffffffffffffffffffffffffffffffff82169050919050565b6000610f0c82610ee1565b9050919050565b610f1c81610f01565b8114610f2757600080fd5b50565b600081359050610f3981610f13565b92915050565b600060208284031215610f5557610f54610dc2565b5b6000610f6384828501610f2a565b91505092915050565b60008115159050919050565b610f8181610f6c565b82525050565b6000602082019050610f9c6000830184610f78565b92915050565b610fab81610f01565b82525050565b6000602082019050610fc66000830184610fa2565b92915050565b610fd581610dcc565b82525050565b600061014082019050610ff1600083018d610fcc565b610ffe602083018c610fcc565b61100b604083018b610fcc565b611018606083018a610fcc565b6110256080830189610fa2565b81810360a08301526110378188610e86565b905081810360c083015261104b8187610e86565b905081810360e083015261105f8186610e86565b905061106f610100830185610fcc565b61107d610120830184610fa2565b9b9a5050505050505050505050565b60006020820190506110a16000830184610fcc565b92915050565b600080fd5b600080fd5b7f4e487b7100000000000000000000000000000000000000000000000000000000600052604160045260246000fd5b6110e982610e75565b810181811067ffffffffffffffff82111715611108576111076110b1565b5b80604052505050565b600061111b610db8565b905061112782826110e0565b919050565b600067ffffffffffffffff821115611147576111466110b1565b5b61115082610e75565b9050602081019050919050565b82818337600083830152505050565b600061117f61117a8461112c565b611111565b90508281526020810184848401111561119b5761119a6110ac565b5b6111a684828561115d565b509392505050565b600082601f8301126111c3576111c26110a7565b5b81356111d384826020860161116c565b91505092915050565b6000806000606084860312156111f5576111f4610dc2565b5b600084013567ffffffffffffffff81111561121357611212610dc7565b5b61121f868287016111ae565b935050602061123086828701610ded565b925050604061124186828701610f2a565b9150509250925092565b7f4e487b7100000000000000000000000000000000000000000000000000000000600052601260045260246000fd5b7f4e487b7100000000000000000000000000000000000000000000000000000000600052601160045260246000fd5b60006112b482610dcc565b91506112bf83610dcc565b9250826112cf576112ce61124b565b5b828204905092915050565b7f4e487b7100000000000000000000000000000000000000000000000000000000600052602260045260246000fd5b6000600282049050600182168061132157607f821691505b602082108103611334576113336112da565b5b50919050565b600061134582610dcc565b91507fffffffffffffffffffffffffffffffffffffffffffffffffffffffffffffffff82036113775761137661127a565b5b600182019050919050565b60008190508160005260206000209050919050565b60006020601f8301049050919050565b600082821b905092915050565b6000600883026113e47fffffffffffffffffffffffffffffffffffffffffffffffffffffffffffffffff826113a7565b6113ee86836113a7565b95508019841693508086168417925050509392505050565b6000819050919050565b600061142b61142661142184610dcc565b611406565b610dcc565b9050919050565b6000819050919050565b61144583611410565b61145961145182611432565b8484546113b4565b825550505050565b600090565b61146e611461565b61147981848461143c565b505050565b5b8181101561149d57611492600082611466565b60018101905061147f565b5050565b601f8211156114e2576114b381611382565b6114bc84611397565b810160208510156114cb578190505b6114df6114d785611397565b83018261147e565b50505b505050565b600082821c905092915050565b6000611505600019846008026114e7565b1980831691505092915050565b600061151e83836114f4565b9150826002028217905092915050565b61153782610e2f565b67ffffffffffffffff8111156115505761154f6110b1565b5b61155a8254611309565b6115658282856114a1565b600060209050601f8311600181146115985760008415611586578287015190505b6115908582611512565b8655506115f8565b601f1984166115a686611382565b60005b828110156115ce578489015182556001820191506020850194506020810190506115a9565b868310156115eb57848901516115e7601f8916826114f4565b8355505b6001600288020188555050505b505050505050565b600061160b82610dcc565b915061161683610dcc565b925082820261162481610dcc565b9150828204841483151761163b5761163a61127a565b5b509291505056fea2646970667358221220db3363700b99bec74b214c2f586bd59c3411182e4a5a83b13e00e549bda646d564736f6c63430008110033",
  "linkReferences": {},
  "deployedLinkReferences": {}
}